{
  "_format": "hh-sol-artifact-1",
  "contractName": "MintNFT",
  "sourceName": "contracts/MintNFT.sol",
  "abi": [
    {
      "inputs": [],
      "stateMutability": "nonpayable",
      "type": "constructor"
    },
    {
      "anonymous": false,
      "inputs": [
        {
          "indexed": true,
          "internalType": "address",
          "name": "owner",
          "type": "address"
        },
        {
          "indexed": true,
          "internalType": "address",
          "name": "approved",
          "type": "address"
        },
        {
          "indexed": true,
          "internalType": "uint256",
          "name": "tokenId",
          "type": "uint256"
        }
      ],
      "name": "Approval",
      "type": "event"
    },
    {
      "anonymous": false,
      "inputs": [
        {
          "indexed": true,
          "internalType": "address",
          "name": "owner",
          "type": "address"
        },
        {
          "indexed": true,
          "internalType": "address",
          "name": "operator",
          "type": "address"
        },
        {
          "indexed": false,
          "internalType": "bool",
          "name": "approved",
          "type": "bool"
        }
      ],
      "name": "ApprovalForAll",
      "type": "event"
    },
    {
      "anonymous": false,
      "inputs": [
        {
          "indexed": true,
          "internalType": "address",
          "name": "previousOwner",
          "type": "address"
        },
        {
          "indexed": true,
          "internalType": "address",
          "name": "newOwner",
          "type": "address"
        }
      ],
      "name": "OwnershipTransferred",
      "type": "event"
    },
    {
      "anonymous": false,
      "inputs": [
        {
          "indexed": true,
          "internalType": "address",
          "name": "from",
          "type": "address"
        },
        {
          "indexed": true,
          "internalType": "address",
          "name": "to",
          "type": "address"
        },
        {
          "indexed": true,
          "internalType": "uint256",
          "name": "tokenId",
          "type": "uint256"
        }
      ],
      "name": "Transfer",
      "type": "event"
    },
    {
      "stateMutability": "payable",
      "type": "fallback"
    },
    {
      "inputs": [
        {
          "internalType": "address",
          "name": "to",
          "type": "address"
        },
        {
          "internalType": "uint256",
          "name": "tokenId",
          "type": "uint256"
        }
      ],
      "name": "approve",
      "outputs": [],
      "stateMutability": "nonpayable",
      "type": "function"
    },
    {
      "inputs": [
        {
          "internalType": "address",
          "name": "owner",
          "type": "address"
        }
      ],
      "name": "balanceOf",
      "outputs": [
        {
          "internalType": "uint256",
          "name": "",
          "type": "uint256"
        }
      ],
      "stateMutability": "view",
      "type": "function"
    },
    {
      "inputs": [],
      "name": "baseExtension",
      "outputs": [
        {
          "internalType": "string",
          "name": "",
          "type": "string"
        }
      ],
      "stateMutability": "view",
      "type": "function"
    },
    {
      "inputs": [],
      "name": "cost",
      "outputs": [
        {
          "internalType": "uint256",
          "name": "",
          "type": "uint256"
        }
      ],
      "stateMutability": "view",
      "type": "function"
    },
    {
      "inputs": [
        {
          "internalType": "uint256",
          "name": "tokenId",
          "type": "uint256"
        }
      ],
      "name": "getApproved",
      "outputs": [
        {
          "internalType": "address",
          "name": "",
          "type": "address"
        }
      ],
      "stateMutability": "view",
      "type": "function"
    },
    {
      "inputs": [
        {
          "internalType": "address",
          "name": "owner",
          "type": "address"
        },
        {
          "internalType": "address",
          "name": "operator",
          "type": "address"
        }
      ],
      "name": "isApprovedForAll",
      "outputs": [
        {
          "internalType": "bool",
          "name": "",
          "type": "bool"
        }
      ],
      "stateMutability": "view",
      "type": "function"
    },
    {
      "inputs": [],
      "name": "maxSupply",
      "outputs": [
        {
          "internalType": "uint256",
          "name": "",
          "type": "uint256"
        }
      ],
      "stateMutability": "view",
      "type": "function"
    },
    {
      "inputs": [],
      "name": "mint",
      "outputs": [],
      "stateMutability": "payable",
      "type": "function"
    },
    {
      "inputs": [],
      "name": "name",
      "outputs": [
        {
          "internalType": "string",
          "name": "",
          "type": "string"
        }
      ],
      "stateMutability": "view",
      "type": "function"
    },
    {
      "inputs": [],
      "name": "notRevealedUri",
      "outputs": [
        {
          "internalType": "string",
          "name": "",
          "type": "string"
        }
      ],
      "stateMutability": "view",
      "type": "function"
    },
    {
      "inputs": [],
      "name": "owner",
      "outputs": [
        {
          "internalType": "address",
          "name": "",
          "type": "address"
        }
      ],
      "stateMutability": "view",
      "type": "function"
    },
    {
      "inputs": [
        {
          "internalType": "uint256",
          "name": "tokenId",
          "type": "uint256"
        }
      ],
      "name": "ownerOf",
      "outputs": [
        {
          "internalType": "address",
          "name": "",
          "type": "address"
        }
      ],
      "stateMutability": "view",
      "type": "function"
    },
    {
      "inputs": [
        {
          "internalType": "bool",
          "name": "_state",
          "type": "bool"
        }
      ],
      "name": "pause",
      "outputs": [],
      "stateMutability": "nonpayable",
      "type": "function"
    },
    {
      "inputs": [],
      "name": "paused",
      "outputs": [
        {
          "internalType": "bool",
          "name": "",
          "type": "bool"
        }
      ],
      "stateMutability": "view",
      "type": "function"
    },
    {
      "inputs": [
        {
          "internalType": "address",
          "name": "",
          "type": "address"
        }
      ],
      "name": "presaleAddresses",
      "outputs": [
        {
          "internalType": "bool",
          "name": "",
          "type": "bool"
        }
      ],
      "stateMutability": "view",
      "type": "function"
    },
    {
      "inputs": [],
      "name": "renounceOwnership",
      "outputs": [],
      "stateMutability": "nonpayable",
      "type": "function"
    },
    {
      "inputs": [],
      "name": "reveal",
      "outputs": [],
      "stateMutability": "nonpayable",
      "type": "function"
    },
    {
      "inputs": [],
      "name": "revealed",
      "outputs": [
        {
          "internalType": "bool",
          "name": "",
          "type": "bool"
        }
      ],
      "stateMutability": "view",
      "type": "function"
    },
    {
      "inputs": [
        {
          "internalType": "address",
          "name": "from",
          "type": "address"
        },
        {
          "internalType": "address",
          "name": "to",
          "type": "address"
        },
        {
          "internalType": "uint256",
          "name": "tokenId",
          "type": "uint256"
        }
      ],
      "name": "safeTransferFrom",
      "outputs": [],
      "stateMutability": "nonpayable",
      "type": "function"
    },
    {
      "inputs": [
        {
          "internalType": "address",
          "name": "from",
          "type": "address"
        },
        {
          "internalType": "address",
          "name": "to",
          "type": "address"
        },
        {
          "internalType": "uint256",
          "name": "tokenId",
          "type": "uint256"
        },
        {
          "internalType": "bytes",
          "name": "data",
          "type": "bytes"
        }
      ],
      "name": "safeTransferFrom",
      "outputs": [],
      "stateMutability": "nonpayable",
      "type": "function"
    },
    {
      "inputs": [
        {
          "internalType": "address",
          "name": "operator",
          "type": "address"
        },
        {
          "internalType": "bool",
          "name": "approved",
          "type": "bool"
        }
      ],
      "name": "setApprovalForAll",
      "outputs": [],
      "stateMutability": "nonpayable",
      "type": "function"
    },
    {
      "inputs": [
        {
          "internalType": "string",
          "name": "_newBaseExtension",
          "type": "string"
        }
      ],
      "name": "setBaseExtension",
      "outputs": [],
      "stateMutability": "nonpayable",
      "type": "function"
    },
    {
      "inputs": [
        {
          "internalType": "string",
          "name": "_newBaseURI",
          "type": "string"
        }
      ],
      "name": "setBaseURI",
      "outputs": [],
      "stateMutability": "nonpayable",
      "type": "function"
    },
    {
      "inputs": [
        {
          "internalType": "uint256",
          "name": "_newCost",
          "type": "uint256"
        }
      ],
      "name": "setCost",
      "outputs": [],
      "stateMutability": "nonpayable",
      "type": "function"
    },
    {
      "inputs": [
        {
          "internalType": "string",
          "name": "_notRevealedURI",
          "type": "string"
        }
      ],
      "name": "setNotRevealedURI",
      "outputs": [],
      "stateMutability": "nonpayable",
      "type": "function"
    },
    {
      "inputs": [
        {
          "internalType": "uint256",
          "name": "_newmaxMintAmount",
          "type": "uint256"
        }
      ],
      "name": "setmaxMintAmount",
      "outputs": [],
      "stateMutability": "nonpayable",
      "type": "function"
    },
    {
      "inputs": [
        {
          "internalType": "bytes4",
          "name": "interfaceId",
          "type": "bytes4"
        }
      ],
      "name": "supportsInterface",
      "outputs": [
        {
          "internalType": "bool",
          "name": "",
          "type": "bool"
        }
      ],
      "stateMutability": "view",
      "type": "function"
    },
    {
      "inputs": [],
      "name": "symbol",
      "outputs": [
        {
          "internalType": "string",
          "name": "",
          "type": "string"
        }
      ],
      "stateMutability": "view",
      "type": "function"
    },
    {
      "inputs": [
        {
          "internalType": "uint256",
          "name": "index",
          "type": "uint256"
        }
      ],
      "name": "tokenByIndex",
      "outputs": [
        {
          "internalType": "uint256",
          "name": "",
          "type": "uint256"
        }
      ],
      "stateMutability": "view",
      "type": "function"
    },
    {
      "inputs": [],
      "name": "tokenIds",
      "outputs": [
        {
          "internalType": "uint256",
          "name": "",
          "type": "uint256"
        }
      ],
      "stateMutability": "view",
      "type": "function"
    },
    {
      "inputs": [
        {
          "internalType": "address",
          "name": "owner",
          "type": "address"
        },
        {
          "internalType": "uint256",
          "name": "index",
          "type": "uint256"
        }
      ],
      "name": "tokenOfOwnerByIndex",
      "outputs": [
        {
          "internalType": "uint256",
          "name": "",
          "type": "uint256"
        }
      ],
      "stateMutability": "view",
      "type": "function"
    },
    {
      "inputs": [
        {
          "internalType": "uint256",
          "name": "tokenId",
          "type": "uint256"
        }
      ],
      "name": "tokenURI",
      "outputs": [
        {
          "internalType": "string",
          "name": "",
          "type": "string"
        }
      ],
      "stateMutability": "view",
      "type": "function"
    },
    {
      "inputs": [],
      "name": "totalSupply",
      "outputs": [
        {
          "internalType": "uint256",
          "name": "",
          "type": "uint256"
        }
      ],
      "stateMutability": "view",
      "type": "function"
    },
    {
      "inputs": [
        {
          "internalType": "address",
          "name": "from",
          "type": "address"
        },
        {
          "internalType": "address",
          "name": "to",
          "type": "address"
        },
        {
          "internalType": "uint256",
          "name": "tokenId",
          "type": "uint256"
        }
      ],
      "name": "transferFrom",
      "outputs": [],
      "stateMutability": "nonpayable",
      "type": "function"
    },
    {
      "inputs": [
        {
          "internalType": "address",
          "name": "newOwner",
          "type": "address"
        }
      ],
      "name": "transferOwnership",
      "outputs": [],
      "stateMutability": "nonpayable",
      "type": "function"
    },
    {
      "inputs": [],
      "name": "withdraw",
      "outputs": [],
      "stateMutability": "nonpayable",
      "type": "function"
    },
    {
      "stateMutability": "payable",
      "type": "receive"
    }
  ],
  "bytecode": "0x60e060405260366080818152906200273760a03980516200002991600c9160209091019062000195565b5060408051808201909152600580825264173539b7b760d91b60209092019182526200005891600d9162000195565b5066038d7ea4c68000600e55600f805460ff199081169091556103e860105560128054909116905560408051608081019091526041808252620026f660208301398051620000af9160139160209091019062000195565b50348015620000bd57600080fd5b50604080518082018252600681526550616e64617360d01b602080830191825283518085019094526002845261504160f01b908401528151919291620001069160009162000195565b5080516200011c90600190602084019062000195565b50505062000139620001336200013f60201b60201c565b62000143565b62000278565b3390565b600a80546001600160a01b038381166001600160a01b0319831681179093556040519116919082907f8be0079c531659141344cd1fd0a4f28419497f9722a3daafe3b4186f6b6457e090600090a35050565b828054620001a3906200023b565b90600052602060002090601f016020900481019282620001c7576000855562000212565b82601f10620001e257805160ff191683800117855562000212565b8280016001018555821562000212579182015b8281111562000212578251825591602001919060010190620001f5565b506200022092915062000224565b5090565b5b8082111562000220576000815560010162000225565b600181811c908216806200025057607f821691505b602082108114156200027257634e487b7160e01b600052602260045260246000fd5b50919050565b61246e80620002886000396000f3fe60806040526004361061022f5760003560e01c80636352211e11610126578063a475b5dd116100a7578063d5abeb0111610079578063e985e9c511610061578063e985e9c514610614578063f2c4ce1e1461065d578063f2fde38b1461067d57005b8063d5abeb01146105de578063da3ef23f146105f457005b8063a475b5dd14610574578063b88d4fde14610589578063c6682862146105a9578063c87b56dd146105be57005b8063715018a6116100f85780638da5cb5b116100e05780638da5cb5b1461052157806395d89b411461053f578063a22cb4651461055457005b8063715018a6146104ec5780637f00c7a61461050157005b80636352211e1461046657806366fca9801461048657806370a08231146104b6578063714cff56146104d657005b806323b872dd116101b057806344a0d68a11610182578063518302271161016a578063518302271461041257806355f804b31461042c5780635c975abb1461044c57005b806344a0d68a146103d25780634f6ccce7146103f257005b806323b872dd1461035d5780632f745c591461037d5780633ccfd60b1461039d57806342842e0e146103b257005b8063081c8c44116102015780631249c58b116101e95780631249c58b1461031c57806313faede61461032457806318160ddd1461034857005b8063081c8c44146102e7578063095ea7b3146102fc57005b806301ffc9a71461023857806302329a291461026d57806306fdde031461028d578063081812fc146102af57005b3661023657005b005b34801561024457600080fd5b50610258610253366004612134565b61069d565b60405190151581526020015b60405180910390f35b34801561027957600080fd5b5061023661028836600461211a565b6106e1565b34801561029957600080fd5b506102a26106fc565b60405161026491906122f4565b3480156102bb57600080fd5b506102cf6102ca3660046121b2565b61078e565b6040516001600160a01b039091168152602001610264565b3480156102f357600080fd5b506102a26107b5565b34801561030857600080fd5b506102366103173660046120f1565b610843565b61023661097a565b34801561033057600080fd5b5061033a600e5481565b604051908152602001610264565b34801561035457600080fd5b5060085461033a565b34801561036957600080fd5b50610236610378366004612014565b610a94565b34801561038957600080fd5b5061033a6103983660046120f1565b610b1b565b3480156103a957600080fd5b50610236610bc3565b3480156103be57600080fd5b506102366103cd366004612014565b610c85565b3480156103de57600080fd5b506102366103ed3660046121b2565b610ca0565b3480156103fe57600080fd5b5061033a61040d3660046121b2565b610cad565b34801561041e57600080fd5b506012546102589060ff1681565b34801561043857600080fd5b5061023661044736600461216c565b610d5f565b34801561045857600080fd5b50600f546102589060ff1681565b34801561047257600080fd5b506102cf6104813660046121b2565b610d7e565b34801561049257600080fd5b506102586104a1366004611fc8565b600b6020526000908152604090205460ff1681565b3480156104c257600080fd5b5061033a6104d1366004611fc8565b610de3565b3480156104e257600080fd5b5061033a60115481565b3480156104f857600080fd5b50610236610e7d565b34801561050d57600080fd5b5061023661051c3660046121b2565b610e91565b34801561052d57600080fd5b50600a546001600160a01b03166102cf565b34801561054b57600080fd5b506102a2610e9e565b34801561056057600080fd5b5061023661056f3660046120c8565b610ead565b34801561058057600080fd5b50610236610eb8565b34801561059557600080fd5b506102366105a436600461204f565b610ecf565b3480156105b557600080fd5b506102a2610f5d565b3480156105ca57600080fd5b506102a26105d93660046121b2565b610f6a565b3480156105ea57600080fd5b5061033a60105481565b34801561060057600080fd5b5061023661060f36600461216c565b6110cc565b34801561062057600080fd5b5061025861062f366004611fe2565b6001600160a01b03918216600090815260056020908152604080832093909416825291909152205460ff1690565b34801561066957600080fd5b5061023661067836600461216c565b6110e7565b34801561068957600080fd5b50610236610698366004611fc8565b611102565b60006001600160e01b031982167f780e9d630000000000000000000000000000000000000000000000000000000014806106db57506106db8261118f565b92915050565b6106e961122a565b600f805460ff1916911515919091179055565b60606000805461070b90612376565b80601f016020809104026020016040519081016040528092919081815260200182805461073790612376565b80156107845780601f1061075957610100808354040283529160200191610784565b820191906000526020600020905b81548152906001019060200180831161076757829003601f168201915b5050505050905090565b600061079982611284565b506000908152600460205260409020546001600160a01b031690565b601380546107c290612376565b80601f01602080910402602001604051908101604052809291908181526020018280546107ee90612376565b801561083b5780601f106108105761010080835404028352916020019161083b565b820191906000526020600020905b81548152906001019060200180831161081e57829003601f168201915b505050505081565b600061084e82610d7e565b9050806001600160a01b0316836001600160a01b031614156108dd5760405162461bcd60e51b815260206004820152602160248201527f4552433732313a20617070726f76616c20746f2063757272656e74206f776e6560448201527f720000000000000000000000000000000000000000000000000000000000000060648201526084015b60405180910390fd5b336001600160a01b03821614806108f957506108f9813361062f565b61096b5760405162461bcd60e51b815260206004820152603e60248201527f4552433732313a20617070726f76652063616c6c6572206973206e6f7420746f60448201527f6b656e206f776e6572206e6f7220617070726f76656420666f7220616c6c000060648201526084016108d4565b61097583836112e8565b505050565b600f5460ff16156109cd5760405162461bcd60e51b815260206004820152601b60248201527f436f6e747261637420697320506175736564206279206f776e6572000000000060448201526064016108d4565b60006109d860085490565b90506010548110610a2b5760405162461bcd60e51b815260206004820152600e60248201527f4e6f204e465420746f206d696e7400000000000000000000000000000000000060448201526064016108d4565b600e54341015610a7d5760405162461bcd60e51b815260206004820152601c60248201527f416d6f756e74206973206c657373207468616e2074686520436f73740000000060448201526064016108d4565b610a9133610a8c836001612307565b611363565b50565b610a9e338261137d565b610b105760405162461bcd60e51b815260206004820152602e60248201527f4552433732313a2063616c6c6572206973206e6f7420746f6b656e206f776e6560448201527f72206e6f7220617070726f76656400000000000000000000000000000000000060648201526084016108d4565b6109758383836113fc565b6000610b2683610de3565b8210610b9a5760405162461bcd60e51b815260206004820152602b60248201527f455243373231456e756d657261626c653a206f776e657220696e646578206f7560448201527f74206f6620626f756e647300000000000000000000000000000000000000000060648201526084016108d4565b506001600160a01b03919091166000908152600660209081526040808320938352929052205490565b610bcb61122a565b6000610bdf600a546001600160a01b031690565b60405190915047906000906001600160a01b0384169083908381818185875af1925050503d8060008114610c2f576040519150601f19603f3d011682016040523d82523d6000602084013e610c34565b606091505b50509050806109755760405162461bcd60e51b815260206004820152601460248201527f4661696c656420746f2073656e6420457468657200000000000000000000000060448201526064016108d4565b61097583838360405180602001604052806000815250610ecf565b610ca861122a565b600e55565b6000610cb860085490565b8210610d2c5760405162461bcd60e51b815260206004820152602c60248201527f455243373231456e756d657261626c653a20676c6f62616c20696e646578206f60448201527f7574206f6620626f756e6473000000000000000000000000000000000000000060648201526084016108d4565b60088281548110610d4d57634e487b7160e01b600052603260045260246000fd5b90600052602060002001549050919050565b610d6761122a565b8051610d7a90600c906020840190611e8d565b5050565b6000818152600260205260408120546001600160a01b0316806106db5760405162461bcd60e51b815260206004820152601860248201527f4552433732313a20696e76616c696420746f6b656e204944000000000000000060448201526064016108d4565b60006001600160a01b038216610e615760405162461bcd60e51b815260206004820152602960248201527f4552433732313a2061646472657373207a65726f206973206e6f74206120766160448201527f6c6964206f776e6572000000000000000000000000000000000000000000000060648201526084016108d4565b506001600160a01b031660009081526003602052604090205490565b610e8561122a565b610e8f60006115e1565b565b610e9961122a565b601155565b60606001805461070b90612376565b610d7a338383611640565b610ec061122a565b6012805460ff19166001179055565b610ed9338361137d565b610f4b5760405162461bcd60e51b815260206004820152602e60248201527f4552433732313a2063616c6c6572206973206e6f7420746f6b656e206f776e6560448201527f72206e6f7220617070726f76656400000000000000000000000000000000000060648201526084016108d4565b610f578484848461170f565b50505050565b600d80546107c290612376565b6000818152600260205260409020546060906001600160a01b0316610fd15760405162461bcd60e51b815260206004820152601260248201527f555249206973206e6f742070726573656e74000000000000000000000000000060448201526064016108d4565b60125460ff1661106d5760138054610fe890612376565b80601f016020809104026020016040519081016040528092919081815260200182805461101490612376565b80156110615780601f1061103657610100808354040283529160200191611061565b820191906000526020600020905b81548152906001019060200180831161104457829003601f168201915b50505050509050919050565b600061107761178d565b9050600081511161109757604051806020016040528060008152506110c5565b806110a18461179c565b600d6040516020016110b5939291906121f6565b6040516020818303038152906040525b9392505050565b6110d461122a565b8051610d7a90600d906020840190611e8d565b6110ef61122a565b8051610d7a906013906020840190611e8d565b61110a61122a565b6001600160a01b0381166111865760405162461bcd60e51b815260206004820152602660248201527f4f776e61626c653a206e6577206f776e657220697320746865207a65726f206160448201527f646472657373000000000000000000000000000000000000000000000000000060648201526084016108d4565b610a91816115e1565b60006001600160e01b031982167f80ac58cd0000000000000000000000000000000000000000000000000000000014806111f257506001600160e01b031982167f5b5e139f00000000000000000000000000000000000000000000000000000000145b806106db57507f01ffc9a7000000000000000000000000000000000000000000000000000000006001600160e01b03198316146106db565b600a546001600160a01b03163314610e8f5760405162461bcd60e51b815260206004820181905260248201527f4f776e61626c653a2063616c6c6572206973206e6f7420746865206f776e657260448201526064016108d4565b6000818152600260205260409020546001600160a01b0316610a915760405162461bcd60e51b815260206004820152601860248201527f4552433732313a20696e76616c696420746f6b656e204944000000000000000060448201526064016108d4565b6000818152600460205260409020805473ffffffffffffffffffffffffffffffffffffffff19166001600160a01b038416908117909155819061132a82610d7e565b6001600160a01b03167f8c5be1e5ebec7d5bd14f71427d1e84f3dd0314c0f7b2291e5b200ac8c7c3b92560405160405180910390a45050565b610d7a8282604051806020016040528060008152506118ea565b60008061138983610d7e565b9050806001600160a01b0316846001600160a01b031614806113d057506001600160a01b0380821660009081526005602090815260408083209388168352929052205460ff165b806113f45750836001600160a01b03166113e98461078e565b6001600160a01b0316145b949350505050565b826001600160a01b031661140f82610d7e565b6001600160a01b03161461148b5760405162461bcd60e51b815260206004820152602560248201527f4552433732313a207472616e736665722066726f6d20696e636f72726563742060448201527f6f776e657200000000000000000000000000000000000000000000000000000060648201526084016108d4565b6001600160a01b0382166115065760405162461bcd60e51b8152602060048201526024808201527f4552433732313a207472616e7366657220746f20746865207a65726f2061646460448201527f726573730000000000000000000000000000000000000000000000000000000060648201526084016108d4565b611511838383611968565b61151c6000826112e8565b6001600160a01b0383166000908152600360205260408120805460019290611545908490612333565b90915550506001600160a01b0382166000908152600360205260408120805460019290611573908490612307565b9091555050600081815260026020526040808220805473ffffffffffffffffffffffffffffffffffffffff19166001600160a01b0386811691821790925591518493918716917fddf252ad1be2c89b69c2b068fc378daa952ba7f163c4a11628f55a4df523b3ef91a4505050565b600a80546001600160a01b0383811673ffffffffffffffffffffffffffffffffffffffff19831681179093556040519116919082907f8be0079c531659141344cd1fd0a4f28419497f9722a3daafe3b4186f6b6457e090600090a35050565b816001600160a01b0316836001600160a01b031614156116a25760405162461bcd60e51b815260206004820152601960248201527f4552433732313a20617070726f766520746f2063616c6c65720000000000000060448201526064016108d4565b6001600160a01b03838116600081815260056020908152604080832094871680845294825291829020805460ff191686151590811790915591519182527f17307eab39ab6107e8899845ad3d59bd9653f200f220920489ca2b5937696c31910160405180910390a3505050565b61171a8484846113fc565b61172684848484611a20565b610f575760405162461bcd60e51b815260206004820152603260248201527f4552433732313a207472616e7366657220746f206e6f6e20455243373231526560448201527131b2b4bb32b91034b6b83632b6b2b73a32b960711b60648201526084016108d4565b6060600c805461070b90612376565b6060816117dc57505060408051808201909152600181527f3000000000000000000000000000000000000000000000000000000000000000602082015290565b8160005b811561180657806117f0816123b1565b91506117ff9050600a8361231f565b91506117e0565b60008167ffffffffffffffff81111561182f57634e487b7160e01b600052604160045260246000fd5b6040519080825280601f01601f191660200182016040528015611859576020820181803683370190505b5090505b84156113f45761186e600183612333565b915061187b600a866123cc565b611886906030612307565b60f81b8183815181106118a957634e487b7160e01b600052603260045260246000fd5b60200101907effffffffffffffffffffffffffffffffffffffffffffffffffffffffffffff1916908160001a9053506118e3600a8661231f565b945061185d565b6118f48383611b78565b6119016000848484611a20565b6109755760405162461bcd60e51b815260206004820152603260248201527f4552433732313a207472616e7366657220746f206e6f6e20455243373231526560448201527131b2b4bb32b91034b6b83632b6b2b73a32b960711b60648201526084016108d4565b6001600160a01b0383166119c3576119be81600880546000838152600960205260408120829055600182018355919091527ff3f7a9fe364faab93b216da50a3214154f22a0a2b415b23a84c8169e8b636ee30155565b6119e6565b816001600160a01b0316836001600160a01b0316146119e6576119e68382611cd3565b6001600160a01b0382166119fd5761097581611d70565b826001600160a01b0316826001600160a01b031614610975576109758282611e49565b60006001600160a01b0384163b15611b6d57604051630a85bd0160e11b81526001600160a01b0385169063150b7a0290611a649033908990889088906004016122b8565b602060405180830381600087803b158015611a7e57600080fd5b505af1925050508015611aae575060408051601f3d908101601f19168201909252611aab91810190612150565b60015b611b53573d808015611adc576040519150601f19603f3d011682016040523d82523d6000602084013e611ae1565b606091505b508051611b4b5760405162461bcd60e51b815260206004820152603260248201527f4552433732313a207472616e7366657220746f206e6f6e20455243373231526560448201527131b2b4bb32b91034b6b83632b6b2b73a32b960711b60648201526084016108d4565b805181602001fd5b6001600160e01b031916630a85bd0160e11b1490506113f4565b506001949350505050565b6001600160a01b038216611bce5760405162461bcd60e51b815260206004820181905260248201527f4552433732313a206d696e7420746f20746865207a65726f206164647265737360448201526064016108d4565b6000818152600260205260409020546001600160a01b031615611c335760405162461bcd60e51b815260206004820152601c60248201527f4552433732313a20746f6b656e20616c7265616479206d696e7465640000000060448201526064016108d4565b611c3f60008383611968565b6001600160a01b0382166000908152600360205260408120805460019290611c68908490612307565b9091555050600081815260026020526040808220805473ffffffffffffffffffffffffffffffffffffffff19166001600160a01b03861690811790915590518392907fddf252ad1be2c89b69c2b068fc378daa952ba7f163c4a11628f55a4df523b3ef908290a45050565b60006001611ce084610de3565b611cea9190612333565b600083815260076020526040902054909150808214611d3d576001600160a01b03841660009081526006602090815260408083208584528252808320548484528184208190558352600790915290208190555b5060009182526007602090815260408084208490556001600160a01b039094168352600681528383209183525290812055565b600854600090611d8290600190612333565b60008381526009602052604081205460088054939450909284908110611db857634e487b7160e01b600052603260045260246000fd5b906000526020600020015490508060088381548110611de757634e487b7160e01b600052603260045260246000fd5b6000918252602080832090910192909255828152600990915260408082208490558582528120556008805480611e2d57634e487b7160e01b600052603160045260246000fd5b6001900381819060005260206000200160009055905550505050565b6000611e5483610de3565b6001600160a01b039093166000908152600660209081526040808320868452825280832085905593825260079052919091209190915550565b828054611e9990612376565b90600052602060002090601f016020900481019282611ebb5760008555611f01565b82601f10611ed457805160ff1916838001178555611f01565b82800160010185558215611f01579182015b82811115611f01578251825591602001919060010190611ee6565b50611f0d929150611f11565b5090565b5b80821115611f0d5760008155600101611f12565b600067ffffffffffffffff80841115611f4157611f4161240c565b604051601f8501601f19908116603f01168101908282118183101715611f6957611f6961240c565b81604052809350858152868686011115611f8257600080fd5b858560208301376000602087830101525050509392505050565b80356001600160a01b0381168114611fb357600080fd5b919050565b80358015158114611fb357600080fd5b600060208284031215611fd9578081fd5b6110c582611f9c565b60008060408385031215611ff4578081fd5b611ffd83611f9c565b915061200b60208401611f9c565b90509250929050565b600080600060608486031215612028578081fd5b61203184611f9c565b925061203f60208501611f9c565b9150604084013590509250925092565b60008060008060808587031215612064578081fd5b61206d85611f9c565b935061207b60208601611f9c565b925060408501359150606085013567ffffffffffffffff81111561209d578182fd5b8501601f810187136120ad578182fd5b6120bc87823560208401611f26565b91505092959194509250565b600080604083850312156120da578182fd5b6120e383611f9c565b915061200b60208401611fb8565b60008060408385031215612103578182fd5b61210c83611f9c565b946020939093013593505050565b60006020828403121561212b578081fd5b6110c582611fb8565b600060208284031215612145578081fd5b81356110c581612422565b600060208284031215612161578081fd5b81516110c581612422565b60006020828403121561217d578081fd5b813567ffffffffffffffff811115612193578182fd5b8201601f810184136121a3578182fd5b6113f484823560208401611f26565b6000602082840312156121c3578081fd5b5035919050565b600081518084526121e281602086016020860161234a565b601f01601f19169290920160200192915050565b6000845160206122098285838a0161234a565b85519184019161221c8184848a0161234a565b85549201918390600181811c908083168061223857607f831692505b85831081141561225657634e487b7160e01b88526022600452602488fd5b80801561226a576001811461227b576122a7565b60ff198516885283880195506122a7565b60008b815260209020895b8581101561229f5781548a820152908401908801612286565b505083880195505b50939b9a5050505050505050505050565b60006001600160a01b038087168352808616602084015250836040830152608060608301526122ea60808301846121ca565b9695505050505050565b6020815260006110c560208301846121ca565b6000821982111561231a5761231a6123e0565b500190565b60008261232e5761232e6123f6565b500490565b600082821015612345576123456123e0565b500390565b60005b8381101561236557818101518382015260200161234d565b83811115610f575750506000910152565b600181811c9082168061238a57607f821691505b602082108114156123ab57634e487b7160e01b600052602260045260246000fd5b50919050565b60006000198214156123c5576123c56123e0565b5060010190565b6000826123db576123db6123f6565b500690565b634e487b7160e01b600052601160045260246000fd5b634e487b7160e01b600052601260045260246000fd5b634e487b7160e01b600052604160045260246000fd5b6001600160e01b031981168114610a9157600080fdfea2646970667358221220562948556c08d961ad15c34195ff4896b39502300ef850f1c6b34c439beb130b64736f6c63430008040033697066733a2f2f516d55586d4351444378566e537a534443733556326259587567746246455531554a374363776e454d357744536d2f68696464656e2e6a736f6e697066733a2f2f516d616d4a644653764b635439586250364e766f436b687a733244685272636b4e505078346b4a6852424a4b57452f",
  "linkReferences": {},
  "deployedLinkReferences": {}
}