{
  "_format": "hh-sol-artifact-1",
  "contractName": "NFTMarket",
  "sourceName": "contracts/NFTMarket.sol",
  "abi": [
    {
      "inputs": [],
      "stateMutability": "nonpayable",
      "type": "constructor"
    },
    {
      "anonymous": false,
      "inputs": [
        {
          "indexed": true,
          "internalType": "address",
          "name": "owner",
          "type": "address"
        },
        {
          "indexed": true,
          "internalType": "address",
          "name": "approved",
          "type": "address"
        },
        {
          "indexed": true,
          "internalType": "uint256",
          "name": "tokenId",
          "type": "uint256"
        }
      ],
      "name": "Approval",
      "type": "event"
    },
    {
      "anonymous": false,
      "inputs": [
        {
          "indexed": true,
          "internalType": "address",
          "name": "owner",
          "type": "address"
        },
        {
          "indexed": true,
          "internalType": "address",
          "name": "operator",
          "type": "address"
        },
        {
          "indexed": false,
          "internalType": "bool",
          "name": "approved",
          "type": "bool"
        }
      ],
      "name": "ApprovalForAll",
      "type": "event"
    },
    {
      "anonymous": false,
      "inputs": [
        {
          "indexed": true,
          "internalType": "address",
          "name": "previousOwner",
          "type": "address"
        },
        {
          "indexed": true,
          "internalType": "address",
          "name": "newOwner",
          "type": "address"
        }
      ],
      "name": "OwnershipTransferred",
      "type": "event"
    },
    {
      "anonymous": false,
      "inputs": [
        {
          "indexed": true,
          "internalType": "address",
          "name": "from",
          "type": "address"
        },
        {
          "indexed": true,
          "internalType": "address",
          "name": "to",
          "type": "address"
        },
        {
          "indexed": true,
          "internalType": "uint256",
          "name": "tokenId",
          "type": "uint256"
        }
      ],
      "name": "Transfer",
      "type": "event"
    },
    {
      "stateMutability": "payable",
      "type": "fallback"
    },
    {
      "inputs": [
        {
          "internalType": "address",
          "name": "to",
          "type": "address"
        },
        {
          "internalType": "uint256",
          "name": "tokenId",
          "type": "uint256"
        }
      ],
      "name": "approve",
      "outputs": [],
      "stateMutability": "nonpayable",
      "type": "function"
    },
    {
      "inputs": [
        {
          "internalType": "address",
          "name": "owner",
          "type": "address"
        }
      ],
      "name": "balanceOf",
      "outputs": [
        {
          "internalType": "uint256",
          "name": "",
          "type": "uint256"
        }
      ],
      "stateMutability": "view",
      "type": "function"
    },
    {
      "inputs": [],
      "name": "baseExtension",
      "outputs": [
        {
          "internalType": "string",
          "name": "",
          "type": "string"
        }
      ],
      "stateMutability": "view",
      "type": "function"
    },
    {
      "inputs": [],
      "name": "cost",
      "outputs": [
        {
          "internalType": "uint256",
          "name": "",
          "type": "uint256"
        }
      ],
      "stateMutability": "view",
      "type": "function"
    },
    {
      "inputs": [
        {
          "internalType": "uint256",
          "name": "tokenId",
          "type": "uint256"
        }
      ],
      "name": "getApproved",
      "outputs": [
        {
          "internalType": "address",
          "name": "",
          "type": "address"
        }
      ],
      "stateMutability": "view",
      "type": "function"
    },
    {
      "inputs": [
        {
          "internalType": "address",
          "name": "owner",
          "type": "address"
        },
        {
          "internalType": "address",
          "name": "operator",
          "type": "address"
        }
      ],
      "name": "isApprovedForAll",
      "outputs": [
        {
          "internalType": "bool",
          "name": "",
          "type": "bool"
        }
      ],
      "stateMutability": "view",
      "type": "function"
    },
    {
      "inputs": [],
      "name": "maxSupply",
      "outputs": [
        {
          "internalType": "uint256",
          "name": "",
          "type": "uint256"
        }
      ],
      "stateMutability": "view",
      "type": "function"
    },
    {
      "inputs": [],
      "name": "mint",
      "outputs": [],
      "stateMutability": "payable",
      "type": "function"
    },
    {
      "inputs": [],
      "name": "name",
      "outputs": [
        {
          "internalType": "string",
          "name": "",
          "type": "string"
        }
      ],
      "stateMutability": "view",
      "type": "function"
    },
    {
      "inputs": [],
      "name": "owner",
      "outputs": [
        {
          "internalType": "address",
          "name": "",
          "type": "address"
        }
      ],
      "stateMutability": "view",
      "type": "function"
    },
    {
      "inputs": [
        {
          "internalType": "uint256",
          "name": "tokenId",
          "type": "uint256"
        }
      ],
      "name": "ownerOf",
      "outputs": [
        {
          "internalType": "address",
          "name": "",
          "type": "address"
        }
      ],
      "stateMutability": "view",
      "type": "function"
    },
    {
      "inputs": [
        {
          "internalType": "bool",
          "name": "_state",
          "type": "bool"
        }
      ],
      "name": "pause",
      "outputs": [],
      "stateMutability": "nonpayable",
      "type": "function"
    },
    {
      "inputs": [],
      "name": "paused",
      "outputs": [
        {
          "internalType": "bool",
          "name": "",
          "type": "bool"
        }
      ],
      "stateMutability": "view",
      "type": "function"
    },
    {
      "inputs": [],
      "name": "renounceOwnership",
      "outputs": [],
      "stateMutability": "nonpayable",
      "type": "function"
    },
    {
      "inputs": [],
      "name": "reveal",
      "outputs": [],
      "stateMutability": "nonpayable",
      "type": "function"
    },
    {
      "inputs": [],
      "name": "revealed",
      "outputs": [
        {
          "internalType": "bool",
          "name": "",
          "type": "bool"
        }
      ],
      "stateMutability": "view",
      "type": "function"
    },
    {
      "inputs": [
        {
          "internalType": "address",
          "name": "from",
          "type": "address"
        },
        {
          "internalType": "address",
          "name": "to",
          "type": "address"
        },
        {
          "internalType": "uint256",
          "name": "tokenId",
          "type": "uint256"
        }
      ],
      "name": "safeTransferFrom",
      "outputs": [],
      "stateMutability": "nonpayable",
      "type": "function"
    },
    {
      "inputs": [
        {
          "internalType": "address",
          "name": "from",
          "type": "address"
        },
        {
          "internalType": "address",
          "name": "to",
          "type": "address"
        },
        {
          "internalType": "uint256",
          "name": "tokenId",
          "type": "uint256"
        },
        {
          "internalType": "bytes",
          "name": "data",
          "type": "bytes"
        }
      ],
      "name": "safeTransferFrom",
      "outputs": [],
      "stateMutability": "nonpayable",
      "type": "function"
    },
    {
      "inputs": [
        {
          "internalType": "address",
          "name": "operator",
          "type": "address"
        },
        {
          "internalType": "bool",
          "name": "approved",
          "type": "bool"
        }
      ],
      "name": "setApprovalForAll",
      "outputs": [],
      "stateMutability": "nonpayable",
      "type": "function"
    },
    {
      "inputs": [
        {
          "internalType": "string",
          "name": "_newBaseExtension",
          "type": "string"
        }
      ],
      "name": "setBaseExtension",
      "outputs": [],
      "stateMutability": "nonpayable",
      "type": "function"
    },
    {
      "inputs": [
        {
          "internalType": "string",
          "name": "_newBaseURI",
          "type": "string"
        }
      ],
      "name": "setBaseURI",
      "outputs": [],
      "stateMutability": "nonpayable",
      "type": "function"
    },
    {
      "inputs": [
        {
          "internalType": "uint256",
          "name": "_newCost",
          "type": "uint256"
        }
      ],
      "name": "setCost",
      "outputs": [],
      "stateMutability": "nonpayable",
      "type": "function"
    },
    {
      "inputs": [
        {
          "internalType": "uint256",
          "name": "_newmaxMintAmount",
          "type": "uint256"
        }
      ],
      "name": "setmaxMintAmount",
      "outputs": [],
      "stateMutability": "nonpayable",
      "type": "function"
    },
    {
      "inputs": [
        {
          "internalType": "bytes4",
          "name": "interfaceId",
          "type": "bytes4"
        }
      ],
      "name": "supportsInterface",
      "outputs": [
        {
          "internalType": "bool",
          "name": "",
          "type": "bool"
        }
      ],
      "stateMutability": "view",
      "type": "function"
    },
    {
      "inputs": [],
      "name": "symbol",
      "outputs": [
        {
          "internalType": "string",
          "name": "",
          "type": "string"
        }
      ],
      "stateMutability": "view",
      "type": "function"
    },
    {
      "inputs": [
        {
          "internalType": "uint256",
          "name": "index",
          "type": "uint256"
        }
      ],
      "name": "tokenByIndex",
      "outputs": [
        {
          "internalType": "uint256",
          "name": "",
          "type": "uint256"
        }
      ],
      "stateMutability": "view",
      "type": "function"
    },
    {
      "inputs": [],
      "name": "tokenIds",
      "outputs": [
        {
          "internalType": "uint256",
          "name": "",
          "type": "uint256"
        }
      ],
      "stateMutability": "view",
      "type": "function"
    },
    {
      "inputs": [
        {
          "internalType": "address",
          "name": "owner",
          "type": "address"
        },
        {
          "internalType": "uint256",
          "name": "index",
          "type": "uint256"
        }
      ],
      "name": "tokenOfOwnerByIndex",
      "outputs": [
        {
          "internalType": "uint256",
          "name": "",
          "type": "uint256"
        }
      ],
      "stateMutability": "view",
      "type": "function"
    },
    {
      "inputs": [
        {
          "internalType": "uint256",
          "name": "tokenId",
          "type": "uint256"
        }
      ],
      "name": "tokenURI",
      "outputs": [
        {
          "internalType": "string",
          "name": "",
          "type": "string"
        }
      ],
      "stateMutability": "view",
      "type": "function"
    },
    {
      "inputs": [],
      "name": "totalSupply",
      "outputs": [
        {
          "internalType": "uint256",
          "name": "",
          "type": "uint256"
        }
      ],
      "stateMutability": "view",
      "type": "function"
    },
    {
      "inputs": [
        {
          "internalType": "address",
          "name": "from",
          "type": "address"
        },
        {
          "internalType": "address",
          "name": "to",
          "type": "address"
        },
        {
          "internalType": "uint256",
          "name": "tokenId",
          "type": "uint256"
        }
      ],
      "name": "transferFrom",
      "outputs": [],
      "stateMutability": "nonpayable",
      "type": "function"
    },
    {
      "inputs": [
        {
          "internalType": "address",
          "name": "newOwner",
          "type": "address"
        }
      ],
      "name": "transferOwnership",
      "outputs": [],
      "stateMutability": "nonpayable",
      "type": "function"
    },
    {
      "inputs": [],
      "name": "withdraw",
      "outputs": [],
      "stateMutability": "nonpayable",
      "type": "function"
    },
    {
      "stateMutability": "payable",
      "type": "receive"
    }
  ],
  "bytecode": "0x60e060405260366080818152906200255860a03980516200002991600b9160209091019062000168565b5060408051808201909152600580825264173539b7b760d91b60209092019182526200005891600c9162000168565b5066038d7ea4c68000600d55600e805460ff199081169091556103e8600f556011805490911660011790553480156200009057600080fd5b50604080518082018252600681526550616e64617360d01b602080830191825283518085019094526002845261504160f01b908401528151919291620000d99160009162000168565b508051620000ef90600190602084019062000168565b5050506200010c620001066200011260201b60201c565b62000116565b6200024b565b3390565b600a80546001600160a01b038381166001600160a01b0319831681179093556040519116919082907f8be0079c531659141344cd1fd0a4f28419497f9722a3daafe3b4186f6b6457e090600090a35050565b82805462000176906200020e565b90600052602060002090601f0160209004810192826200019a5760008555620001e5565b82601f10620001b557805160ff1916838001178555620001e5565b82800160010185558215620001e5579182015b82811115620001e5578251825591602001919060010190620001c8565b50620001f3929150620001f7565b5090565b5b80821115620001f35760008155600101620001f8565b600181811c908216806200022357607f821691505b602082108114156200024557634e487b7160e01b600052602260045260246000fd5b50919050565b6122fd806200025b6000396000f3fe6080604052600436106101e75760003560e01c80635c975abb1161010e578063a22cb465116100a7578063c87b56dd11610079578063da3ef23f11610061578063da3ef23f14610567578063e985e9c514610587578063f2fde38b146105d057005b8063c87b56dd14610531578063d5abeb011461055157005b8063a22cb465146104c7578063a475b5dd146104e7578063b88d4fde146104fc578063c66828621461051c57005b8063715018a6116100e0578063715018a61461045f5780637f00c7a6146104745780638da5cb5b1461049457806395d89b41146104b257005b80635c975abb146103ef5780636352211e1461040957806370a0823114610429578063714cff561461044957005b806323b872dd1161018057806344a0d68a1161015257806344a0d68a146103755780634f6ccce71461039557806351830227146103b557806355f804b3146103cf57005b806323b872dd146103005780632f745c59146103205780633ccfd60b1461034057806342842e0e1461035557005b8063095ea7b3116101b9578063095ea7b31461029f5780631249c58b146102bf57806313faede6146102c757806318160ddd146102eb57005b806301ffc9a7146101f057806302329a291461022557806306fdde0314610245578063081812fc1461026757005b366101ee57005b005b3480156101fc57600080fd5b5061021061020b366004611fc3565b6105f0565b60405190151581526020015b60405180910390f35b34801561023157600080fd5b506101ee610240366004611fa9565b610634565b34801561025157600080fd5b5061025a61064f565b60405161021c9190612183565b34801561027357600080fd5b50610287610282366004612041565b6106e1565b6040516001600160a01b03909116815260200161021c565b3480156102ab57600080fd5b506101ee6102ba366004611f80565b610708565b6101ee61083f565b3480156102d357600080fd5b506102dd600d5481565b60405190815260200161021c565b3480156102f757600080fd5b506008546102dd565b34801561030c57600080fd5b506101ee61031b366004611ea3565b610959565b34801561032c57600080fd5b506102dd61033b366004611f80565b6109e0565b34801561034c57600080fd5b506101ee610a88565b34801561036157600080fd5b506101ee610370366004611ea3565b610b4a565b34801561038157600080fd5b506101ee610390366004612041565b610b65565b3480156103a157600080fd5b506102dd6103b0366004612041565b610b72565b3480156103c157600080fd5b506011546102109060ff1681565b3480156103db57600080fd5b506101ee6103ea366004611ffb565b610c24565b3480156103fb57600080fd5b50600e546102109060ff1681565b34801561041557600080fd5b50610287610424366004612041565b610c43565b34801561043557600080fd5b506102dd610444366004611e57565b610ca8565b34801561045557600080fd5b506102dd60105481565b34801561046b57600080fd5b506101ee610d42565b34801561048057600080fd5b506101ee61048f366004612041565b610d56565b3480156104a057600080fd5b50600a546001600160a01b0316610287565b3480156104be57600080fd5b5061025a610d63565b3480156104d357600080fd5b506101ee6104e2366004611f57565b610d72565b3480156104f357600080fd5b506101ee610d7d565b34801561050857600080fd5b506101ee610517366004611ede565b610d94565b34801561052857600080fd5b5061025a610e22565b34801561053d57600080fd5b5061025a61054c366004612041565b610eb0565b34801561055d57600080fd5b506102dd600f5481565b34801561057357600080fd5b506101ee610582366004611ffb565b610f76565b34801561059357600080fd5b506102106105a2366004611e71565b6001600160a01b03918216600090815260056020908152604080832093909416825291909152205460ff1690565b3480156105dc57600080fd5b506101ee6105eb366004611e57565b610f91565b60006001600160e01b031982167f780e9d6300000000000000000000000000000000000000000000000000000000148061062e575061062e8261101e565b92915050565b61063c6110b9565b600e805460ff1916911515919091179055565b60606000805461065e90612205565b80601f016020809104026020016040519081016040528092919081815260200182805461068a90612205565b80156106d75780601f106106ac576101008083540402835291602001916106d7565b820191906000526020600020905b8154815290600101906020018083116106ba57829003601f168201915b5050505050905090565b60006106ec82611113565b506000908152600460205260409020546001600160a01b031690565b600061071382610c43565b9050806001600160a01b0316836001600160a01b031614156107a25760405162461bcd60e51b815260206004820152602160248201527f4552433732313a20617070726f76616c20746f2063757272656e74206f776e6560448201527f720000000000000000000000000000000000000000000000000000000000000060648201526084015b60405180910390fd5b336001600160a01b03821614806107be57506107be81336105a2565b6108305760405162461bcd60e51b815260206004820152603e60248201527f4552433732313a20617070726f76652063616c6c6572206973206e6f7420746f60448201527f6b656e206f776e6572206e6f7220617070726f76656420666f7220616c6c00006064820152608401610799565b61083a8383611177565b505050565b600e5460ff16156108925760405162461bcd60e51b815260206004820152601b60248201527f436f6e747261637420697320506175736564206279206f776e657200000000006044820152606401610799565b600061089d60085490565b9050600f5481106108f05760405162461bcd60e51b815260206004820152600e60248201527f4e6f204e465420746f206d696e740000000000000000000000000000000000006044820152606401610799565b600d543410156109425760405162461bcd60e51b815260206004820152601f60248201527f416d6f756e742069732067726561746572207468616e2074686520436f7374006044820152606401610799565b61095633610951836001612196565b6111f2565b50565b610963338261120c565b6109d55760405162461bcd60e51b815260206004820152602e60248201527f4552433732313a2063616c6c6572206973206e6f7420746f6b656e206f776e6560448201527f72206e6f7220617070726f7665640000000000000000000000000000000000006064820152608401610799565b61083a83838361128b565b60006109eb83610ca8565b8210610a5f5760405162461bcd60e51b815260206004820152602b60248201527f455243373231456e756d657261626c653a206f776e657220696e646578206f7560448201527f74206f6620626f756e64730000000000000000000000000000000000000000006064820152608401610799565b506001600160a01b03919091166000908152600660209081526040808320938352929052205490565b610a906110b9565b6000610aa4600a546001600160a01b031690565b60405190915047906000906001600160a01b0384169083908381818185875af1925050503d8060008114610af4576040519150601f19603f3d011682016040523d82523d6000602084013e610af9565b606091505b505090508061083a5760405162461bcd60e51b815260206004820152601460248201527f4661696c656420746f2073656e642045746865720000000000000000000000006044820152606401610799565b61083a83838360405180602001604052806000815250610d94565b610b6d6110b9565b600d55565b6000610b7d60085490565b8210610bf15760405162461bcd60e51b815260206004820152602c60248201527f455243373231456e756d657261626c653a20676c6f62616c20696e646578206f60448201527f7574206f6620626f756e647300000000000000000000000000000000000000006064820152608401610799565b60088281548110610c1257634e487b7160e01b600052603260045260246000fd5b90600052602060002001549050919050565b610c2c6110b9565b8051610c3f90600b906020840190611d1c565b5050565b6000818152600260205260408120546001600160a01b03168061062e5760405162461bcd60e51b815260206004820152601860248201527f4552433732313a20696e76616c696420746f6b656e20494400000000000000006044820152606401610799565b60006001600160a01b038216610d265760405162461bcd60e51b815260206004820152602960248201527f4552433732313a2061646472657373207a65726f206973206e6f74206120766160448201527f6c6964206f776e657200000000000000000000000000000000000000000000006064820152608401610799565b506001600160a01b031660009081526003602052604090205490565b610d4a6110b9565b610d546000611470565b565b610d5e6110b9565b601055565b60606001805461065e90612205565b610c3f3383836114cf565b610d856110b9565b6011805460ff19166001179055565b610d9e338361120c565b610e105760405162461bcd60e51b815260206004820152602e60248201527f4552433732313a2063616c6c6572206973206e6f7420746f6b656e206f776e6560448201527f72206e6f7220617070726f7665640000000000000000000000000000000000006064820152608401610799565b610e1c8484848461159e565b50505050565b600c8054610e2f90612205565b80601f0160208091040260200160405190810160405280929190818152602001828054610e5b90612205565b8015610ea85780601f10610e7d57610100808354040283529160200191610ea8565b820191906000526020600020905b815481529060010190602001808311610e8b57829003601f168201915b505050505081565b6000818152600260205260409020546060906001600160a01b0316610f175760405162461bcd60e51b815260206004820152601260248201527f555249206973206e6f742070726573656e7400000000000000000000000000006044820152606401610799565b6000610f2161161c565b90506000815111610f415760405180602001604052806000815250610f6f565b80610f4b8461162b565b600c604051602001610f5f93929190612085565b6040516020818303038152906040525b9392505050565b610f7e6110b9565b8051610c3f90600c906020840190611d1c565b610f996110b9565b6001600160a01b0381166110155760405162461bcd60e51b815260206004820152602660248201527f4f776e61626c653a206e6577206f776e657220697320746865207a65726f206160448201527f64647265737300000000000000000000000000000000000000000000000000006064820152608401610799565b61095681611470565b60006001600160e01b031982167f80ac58cd00000000000000000000000000000000000000000000000000000000148061108157506001600160e01b031982167f5b5e139f00000000000000000000000000000000000000000000000000000000145b8061062e57507f01ffc9a7000000000000000000000000000000000000000000000000000000006001600160e01b031983161461062e565b600a546001600160a01b03163314610d545760405162461bcd60e51b815260206004820181905260248201527f4f776e61626c653a2063616c6c6572206973206e6f7420746865206f776e65726044820152606401610799565b6000818152600260205260409020546001600160a01b03166109565760405162461bcd60e51b815260206004820152601860248201527f4552433732313a20696e76616c696420746f6b656e20494400000000000000006044820152606401610799565b6000818152600460205260409020805473ffffffffffffffffffffffffffffffffffffffff19166001600160a01b03841690811790915581906111b982610c43565b6001600160a01b03167f8c5be1e5ebec7d5bd14f71427d1e84f3dd0314c0f7b2291e5b200ac8c7c3b92560405160405180910390a45050565b610c3f828260405180602001604052806000815250611779565b60008061121883610c43565b9050806001600160a01b0316846001600160a01b0316148061125f57506001600160a01b0380821660009081526005602090815260408083209388168352929052205460ff165b806112835750836001600160a01b0316611278846106e1565b6001600160a01b0316145b949350505050565b826001600160a01b031661129e82610c43565b6001600160a01b03161461131a5760405162461bcd60e51b815260206004820152602560248201527f4552433732313a207472616e736665722066726f6d20696e636f72726563742060448201527f6f776e65720000000000000000000000000000000000000000000000000000006064820152608401610799565b6001600160a01b0382166113955760405162461bcd60e51b8152602060048201526024808201527f4552433732313a207472616e7366657220746f20746865207a65726f2061646460448201527f72657373000000000000000000000000000000000000000000000000000000006064820152608401610799565b6113a08383836117f7565b6113ab600082611177565b6001600160a01b03831660009081526003602052604081208054600192906113d49084906121c2565b90915550506001600160a01b0382166000908152600360205260408120805460019290611402908490612196565b9091555050600081815260026020526040808220805473ffffffffffffffffffffffffffffffffffffffff19166001600160a01b0386811691821790925591518493918716917fddf252ad1be2c89b69c2b068fc378daa952ba7f163c4a11628f55a4df523b3ef91a4505050565b600a80546001600160a01b0383811673ffffffffffffffffffffffffffffffffffffffff19831681179093556040519116919082907f8be0079c531659141344cd1fd0a4f28419497f9722a3daafe3b4186f6b6457e090600090a35050565b816001600160a01b0316836001600160a01b031614156115315760405162461bcd60e51b815260206004820152601960248201527f4552433732313a20617070726f766520746f2063616c6c6572000000000000006044820152606401610799565b6001600160a01b03838116600081815260056020908152604080832094871680845294825291829020805460ff191686151590811790915591519182527f17307eab39ab6107e8899845ad3d59bd9653f200f220920489ca2b5937696c31910160405180910390a3505050565b6115a984848461128b565b6115b5848484846118af565b610e1c5760405162461bcd60e51b815260206004820152603260248201527f4552433732313a207472616e7366657220746f206e6f6e20455243373231526560448201527131b2b4bb32b91034b6b83632b6b2b73a32b960711b6064820152608401610799565b6060600b805461065e90612205565b60608161166b57505060408051808201909152600181527f3000000000000000000000000000000000000000000000000000000000000000602082015290565b8160005b8115611695578061167f81612240565b915061168e9050600a836121ae565b915061166f565b60008167ffffffffffffffff8111156116be57634e487b7160e01b600052604160045260246000fd5b6040519080825280601f01601f1916602001820160405280156116e8576020820181803683370190505b5090505b8415611283576116fd6001836121c2565b915061170a600a8661225b565b611715906030612196565b60f81b81838151811061173857634e487b7160e01b600052603260045260246000fd5b60200101907effffffffffffffffffffffffffffffffffffffffffffffffffffffffffffff1916908160001a905350611772600a866121ae565b94506116ec565b6117838383611a07565b61179060008484846118af565b61083a5760405162461bcd60e51b815260206004820152603260248201527f4552433732313a207472616e7366657220746f206e6f6e20455243373231526560448201527131b2b4bb32b91034b6b83632b6b2b73a32b960711b6064820152608401610799565b6001600160a01b0383166118525761184d81600880546000838152600960205260408120829055600182018355919091527ff3f7a9fe364faab93b216da50a3214154f22a0a2b415b23a84c8169e8b636ee30155565b611875565b816001600160a01b0316836001600160a01b031614611875576118758382611b62565b6001600160a01b03821661188c5761083a81611bff565b826001600160a01b0316826001600160a01b03161461083a5761083a8282611cd8565b60006001600160a01b0384163b156119fc57604051630a85bd0160e11b81526001600160a01b0385169063150b7a02906118f3903390899088908890600401612147565b602060405180830381600087803b15801561190d57600080fd5b505af192505050801561193d575060408051601f3d908101601f1916820190925261193a91810190611fdf565b60015b6119e2573d80801561196b576040519150601f19603f3d011682016040523d82523d6000602084013e611970565b606091505b5080516119da5760405162461bcd60e51b815260206004820152603260248201527f4552433732313a207472616e7366657220746f206e6f6e20455243373231526560448201527131b2b4bb32b91034b6b83632b6b2b73a32b960711b6064820152608401610799565b805181602001fd5b6001600160e01b031916630a85bd0160e11b149050611283565b506001949350505050565b6001600160a01b038216611a5d5760405162461bcd60e51b815260206004820181905260248201527f4552433732313a206d696e7420746f20746865207a65726f20616464726573736044820152606401610799565b6000818152600260205260409020546001600160a01b031615611ac25760405162461bcd60e51b815260206004820152601c60248201527f4552433732313a20746f6b656e20616c7265616479206d696e746564000000006044820152606401610799565b611ace600083836117f7565b6001600160a01b0382166000908152600360205260408120805460019290611af7908490612196565b9091555050600081815260026020526040808220805473ffffffffffffffffffffffffffffffffffffffff19166001600160a01b03861690811790915590518392907fddf252ad1be2c89b69c2b068fc378daa952ba7f163c4a11628f55a4df523b3ef908290a45050565b60006001611b6f84610ca8565b611b7991906121c2565b600083815260076020526040902054909150808214611bcc576001600160a01b03841660009081526006602090815260408083208584528252808320548484528184208190558352600790915290208190555b5060009182526007602090815260408084208490556001600160a01b039094168352600681528383209183525290812055565b600854600090611c11906001906121c2565b60008381526009602052604081205460088054939450909284908110611c4757634e487b7160e01b600052603260045260246000fd5b906000526020600020015490508060088381548110611c7657634e487b7160e01b600052603260045260246000fd5b6000918252602080832090910192909255828152600990915260408082208490558582528120556008805480611cbc57634e487b7160e01b600052603160045260246000fd5b6001900381819060005260206000200160009055905550505050565b6000611ce383610ca8565b6001600160a01b039093166000908152600660209081526040808320868452825280832085905593825260079052919091209190915550565b828054611d2890612205565b90600052602060002090601f016020900481019282611d4a5760008555611d90565b82601f10611d6357805160ff1916838001178555611d90565b82800160010185558215611d90579182015b82811115611d90578251825591602001919060010190611d75565b50611d9c929150611da0565b5090565b5b80821115611d9c5760008155600101611da1565b600067ffffffffffffffff80841115611dd057611dd061229b565b604051601f8501601f19908116603f01168101908282118183101715611df857611df861229b565b81604052809350858152868686011115611e1157600080fd5b858560208301376000602087830101525050509392505050565b80356001600160a01b0381168114611e4257600080fd5b919050565b80358015158114611e4257600080fd5b600060208284031215611e68578081fd5b610f6f82611e2b565b60008060408385031215611e83578081fd5b611e8c83611e2b565b9150611e9a60208401611e2b565b90509250929050565b600080600060608486031215611eb7578081fd5b611ec084611e2b565b9250611ece60208501611e2b565b9150604084013590509250925092565b60008060008060808587031215611ef3578081fd5b611efc85611e2b565b9350611f0a60208601611e2b565b925060408501359150606085013567ffffffffffffffff811115611f2c578182fd5b8501601f81018713611f3c578182fd5b611f4b87823560208401611db5565b91505092959194509250565b60008060408385031215611f69578182fd5b611f7283611e2b565b9150611e9a60208401611e47565b60008060408385031215611f92578182fd5b611f9b83611e2b565b946020939093013593505050565b600060208284031215611fba578081fd5b610f6f82611e47565b600060208284031215611fd4578081fd5b8135610f6f816122b1565b600060208284031215611ff0578081fd5b8151610f6f816122b1565b60006020828403121561200c578081fd5b813567ffffffffffffffff811115612022578182fd5b8201601f81018413612032578182fd5b61128384823560208401611db5565b600060208284031215612052578081fd5b5035919050565b600081518084526120718160208601602086016121d9565b601f01601f19169290920160200192915050565b6000845160206120988285838a016121d9565b8551918401916120ab8184848a016121d9565b85549201918390600181811c90808316806120c757607f831692505b8583108114156120e557634e487b7160e01b88526022600452602488fd5b8080156120f9576001811461210a57612136565b60ff19851688528388019550612136565b60008b815260209020895b8581101561212e5781548a820152908401908801612115565b505083880195505b50939b9a5050505050505050505050565b60006001600160a01b038087168352808616602084015250836040830152608060608301526121796080830184612059565b9695505050505050565b602081526000610f6f6020830184612059565b600082198211156121a9576121a961226f565b500190565b6000826121bd576121bd612285565b500490565b6000828210156121d4576121d461226f565b500390565b60005b838110156121f45781810151838201526020016121dc565b83811115610e1c5750506000910152565b600181811c9082168061221957607f821691505b6020821081141561223a57634e487b7160e01b600052602260045260246000fd5b50919050565b60006000198214156122545761225461226f565b5060010190565b60008261226a5761226a612285565b500690565b634e487b7160e01b600052601160045260246000fd5b634e487b7160e01b600052601260045260246000fd5b634e487b7160e01b600052604160045260246000fd5b6001600160e01b03198116811461095657600080fdfea2646970667358221220f3d9a27f20cda4fcce689a8f9b46211476f884200fd87e025cb992ded4b0ca0064736f6c63430008040033697066733a2f2f516d59414a363531634b453950716f596f746b4858547471616f75744b4761316a654c39416a694c3656667135762f",
  "linkReferences": {},
  "deployedLinkReferences": {}
}