{
  "_format": "hh-sol-artifact-1",
  "contractName": "NFTMark",
  "sourceName": "contracts/NFTMark.sol",
  "abi": [
    {
      "inputs": [],
      "stateMutability": "nonpayable",
      "type": "constructor"
    },
    {
      "anonymous": false,
      "inputs": [
        {
          "indexed": true,
          "internalType": "address",
          "name": "owner",
          "type": "address"
        },
        {
          "indexed": true,
          "internalType": "address",
          "name": "approved",
          "type": "address"
        },
        {
          "indexed": true,
          "internalType": "uint256",
          "name": "tokenId",
          "type": "uint256"
        }
      ],
      "name": "Approval",
      "type": "event"
    },
    {
      "anonymous": false,
      "inputs": [
        {
          "indexed": true,
          "internalType": "address",
          "name": "owner",
          "type": "address"
        },
        {
          "indexed": true,
          "internalType": "address",
          "name": "operator",
          "type": "address"
        },
        {
          "indexed": false,
          "internalType": "bool",
          "name": "approved",
          "type": "bool"
        }
      ],
      "name": "ApprovalForAll",
      "type": "event"
    },
    {
      "anonymous": false,
      "inputs": [
        {
          "indexed": true,
          "internalType": "uint256",
          "name": "tokenId",
          "type": "uint256"
        },
        {
          "indexed": false,
          "internalType": "address",
          "name": "seller",
          "type": "address"
        },
        {
          "indexed": false,
          "internalType": "address",
          "name": "owner",
          "type": "address"
        },
        {
          "indexed": false,
          "internalType": "uint256",
          "name": "price",
          "type": "uint256"
        },
        {
          "indexed": false,
          "internalType": "bool",
          "name": "sold",
          "type": "bool"
        }
      ],
      "name": "MarketItemCreated",
      "type": "event"
    },
    {
      "anonymous": false,
      "inputs": [
        {
          "indexed": true,
          "internalType": "address",
          "name": "from",
          "type": "address"
        },
        {
          "indexed": true,
          "internalType": "address",
          "name": "to",
          "type": "address"
        },
        {
          "indexed": true,
          "internalType": "uint256",
          "name": "tokenId",
          "type": "uint256"
        }
      ],
      "name": "Transfer",
      "type": "event"
    },
    {
      "anonymous": false,
      "inputs": [
        {
          "indexed": false,
          "internalType": "address",
          "name": "sender",
          "type": "address"
        },
        {
          "indexed": false,
          "internalType": "address",
          "name": "to",
          "type": "address"
        },
        {
          "indexed": false,
          "internalType": "uint256",
          "name": "amount",
          "type": "uint256"
        }
      ],
      "name": "TransferSent",
      "type": "event"
    },
    {
      "inputs": [
        {
          "internalType": "address",
          "name": "to",
          "type": "address"
        },
        {
          "internalType": "uint256",
          "name": "tokenId",
          "type": "uint256"
        }
      ],
      "name": "approve",
      "outputs": [],
      "stateMutability": "nonpayable",
      "type": "function"
    },
    {
      "inputs": [
        {
          "internalType": "address",
          "name": "owner",
          "type": "address"
        }
      ],
      "name": "balanceOf",
      "outputs": [
        {
          "internalType": "uint256",
          "name": "",
          "type": "uint256"
        }
      ],
      "stateMutability": "view",
      "type": "function"
    },
    {
      "inputs": [],
      "name": "baseExtension",
      "outputs": [
        {
          "internalType": "string",
          "name": "",
          "type": "string"
        }
      ],
      "stateMutability": "view",
      "type": "function"
    },
    {
      "inputs": [
        {
          "internalType": "uint256",
          "name": "tokenId",
          "type": "uint256"
        }
      ],
      "name": "createMarketSale",
      "outputs": [],
      "stateMutability": "payable",
      "type": "function"
    },
    {
      "inputs": [],
      "name": "createToken",
      "outputs": [],
      "stateMutability": "payable",
      "type": "function"
    },
    {
      "inputs": [],
      "name": "fetchMarketItems",
      "outputs": [
        {
          "components": [
            {
              "internalType": "uint256",
              "name": "tokenId",
              "type": "uint256"
            },
            {
              "internalType": "address payable",
              "name": "seller",
              "type": "address"
            },
            {
              "internalType": "address payable",
              "name": "owner",
              "type": "address"
            },
            {
              "internalType": "uint256",
              "name": "price",
              "type": "uint256"
            },
            {
              "internalType": "bool",
              "name": "sold",
              "type": "bool"
            }
          ],
          "internalType": "struct NFTMark.MarketItem[]",
          "name": "",
          "type": "tuple[]"
        }
      ],
      "stateMutability": "view",
      "type": "function"
    },
    {
      "inputs": [],
      "name": "fetchMyNFTs",
      "outputs": [
        {
          "components": [
            {
              "internalType": "uint256",
              "name": "tokenId",
              "type": "uint256"
            },
            {
              "internalType": "address payable",
              "name": "seller",
              "type": "address"
            },
            {
              "internalType": "address payable",
              "name": "owner",
              "type": "address"
            },
            {
              "internalType": "uint256",
              "name": "price",
              "type": "uint256"
            },
            {
              "internalType": "bool",
              "name": "sold",
              "type": "bool"
            }
          ],
          "internalType": "struct NFTMark.MarketItem[]",
          "name": "",
          "type": "tuple[]"
        }
      ],
      "stateMutability": "view",
      "type": "function"
    },
    {
      "inputs": [
        {
          "internalType": "uint256",
          "name": "tokenId",
          "type": "uint256"
        }
      ],
      "name": "getApproved",
      "outputs": [
        {
          "internalType": "address",
          "name": "",
          "type": "address"
        }
      ],
      "stateMutability": "view",
      "type": "function"
    },
    {
      "inputs": [],
      "name": "getCurrentTokenId",
      "outputs": [
        {
          "internalType": "uint256",
          "name": "",
          "type": "uint256"
        }
      ],
      "stateMutability": "view",
      "type": "function"
    },
    {
      "inputs": [],
      "name": "getListingPrice",
      "outputs": [
        {
          "internalType": "uint256",
          "name": "",
          "type": "uint256"
        }
      ],
      "stateMutability": "view",
      "type": "function"
    },
    {
      "inputs": [
        {
          "internalType": "uint256",
          "name": "tokenId",
          "type": "uint256"
        }
      ],
      "name": "getOwner",
      "outputs": [
        {
          "internalType": "address",
          "name": "",
          "type": "address"
        }
      ],
      "stateMutability": "view",
      "type": "function"
    },
    {
      "inputs": [
        {
          "internalType": "uint256",
          "name": "tokenId",
          "type": "uint256"
        }
      ],
      "name": "getPrice",
      "outputs": [
        {
          "internalType": "uint256",
          "name": "",
          "type": "uint256"
        }
      ],
      "stateMutability": "view",
      "type": "function"
    },
    {
      "inputs": [],
      "name": "getZeroAdrress",
      "outputs": [
        {
          "internalType": "address",
          "name": "",
          "type": "address"
        }
      ],
      "stateMutability": "pure",
      "type": "function"
    },
    {
      "inputs": [
        {
          "internalType": "address",
          "name": "owner",
          "type": "address"
        },
        {
          "internalType": "address",
          "name": "operator",
          "type": "address"
        }
      ],
      "name": "isApprovedForAll",
      "outputs": [
        {
          "internalType": "bool",
          "name": "",
          "type": "bool"
        }
      ],
      "stateMutability": "view",
      "type": "function"
    },
    {
      "inputs": [],
      "name": "maxSupply",
      "outputs": [
        {
          "internalType": "uint256",
          "name": "",
          "type": "uint256"
        }
      ],
      "stateMutability": "view",
      "type": "function"
    },
    {
      "inputs": [],
      "name": "name",
      "outputs": [
        {
          "internalType": "string",
          "name": "",
          "type": "string"
        }
      ],
      "stateMutability": "view",
      "type": "function"
    },
    {
      "inputs": [
        {
          "internalType": "uint256",
          "name": "tokenId",
          "type": "uint256"
        }
      ],
      "name": "ownerOf",
      "outputs": [
        {
          "internalType": "address",
          "name": "",
          "type": "address"
        }
      ],
      "stateMutability": "view",
      "type": "function"
    },
    {
      "inputs": [
        {
          "internalType": "uint256",
          "name": "tokenId",
          "type": "uint256"
        },
        {
          "internalType": "uint256",
          "name": "price",
          "type": "uint256"
        }
      ],
      "name": "resellToken",
      "outputs": [],
      "stateMutability": "payable",
      "type": "function"
    },
    {
      "inputs": [
        {
          "internalType": "address",
          "name": "from",
          "type": "address"
        },
        {
          "internalType": "address",
          "name": "to",
          "type": "address"
        },
        {
          "internalType": "uint256",
          "name": "tokenId",
          "type": "uint256"
        }
      ],
      "name": "safeTransferFrom",
      "outputs": [],
      "stateMutability": "nonpayable",
      "type": "function"
    },
    {
      "inputs": [
        {
          "internalType": "address",
          "name": "from",
          "type": "address"
        },
        {
          "internalType": "address",
          "name": "to",
          "type": "address"
        },
        {
          "internalType": "uint256",
          "name": "tokenId",
          "type": "uint256"
        },
        {
          "internalType": "bytes",
          "name": "data",
          "type": "bytes"
        }
      ],
      "name": "safeTransferFrom",
      "outputs": [],
      "stateMutability": "nonpayable",
      "type": "function"
    },
    {
      "inputs": [
        {
          "internalType": "address",
          "name": "operator",
          "type": "address"
        },
        {
          "internalType": "bool",
          "name": "approved",
          "type": "bool"
        }
      ],
      "name": "setApprovalForAll",
      "outputs": [],
      "stateMutability": "nonpayable",
      "type": "function"
    },
    {
      "inputs": [
        {
          "internalType": "bytes4",
          "name": "interfaceId",
          "type": "bytes4"
        }
      ],
      "name": "supportsInterface",
      "outputs": [
        {
          "internalType": "bool",
          "name": "",
          "type": "bool"
        }
      ],
      "stateMutability": "view",
      "type": "function"
    },
    {
      "inputs": [],
      "name": "symbol",
      "outputs": [
        {
          "internalType": "string",
          "name": "",
          "type": "string"
        }
      ],
      "stateMutability": "view",
      "type": "function"
    },
    {
      "inputs": [
        {
          "internalType": "uint256",
          "name": "index",
          "type": "uint256"
        }
      ],
      "name": "tokenByIndex",
      "outputs": [
        {
          "internalType": "uint256",
          "name": "",
          "type": "uint256"
        }
      ],
      "stateMutability": "view",
      "type": "function"
    },
    {
      "inputs": [],
      "name": "tokenID",
      "outputs": [
        {
          "internalType": "uint256",
          "name": "",
          "type": "uint256"
        }
      ],
      "stateMutability": "view",
      "type": "function"
    },
    {
      "inputs": [],
      "name": "tokenIds",
      "outputs": [
        {
          "internalType": "uint256",
          "name": "",
          "type": "uint256"
        }
      ],
      "stateMutability": "view",
      "type": "function"
    },
    {
      "inputs": [
        {
          "internalType": "address",
          "name": "owner",
          "type": "address"
        },
        {
          "internalType": "uint256",
          "name": "index",
          "type": "uint256"
        }
      ],
      "name": "tokenOfOwnerByIndex",
      "outputs": [
        {
          "internalType": "uint256",
          "name": "",
          "type": "uint256"
        }
      ],
      "stateMutability": "view",
      "type": "function"
    },
    {
      "inputs": [
        {
          "internalType": "uint256",
          "name": "tokenId",
          "type": "uint256"
        }
      ],
      "name": "tokenURI",
      "outputs": [
        {
          "internalType": "string",
          "name": "",
          "type": "string"
        }
      ],
      "stateMutability": "view",
      "type": "function"
    },
    {
      "inputs": [],
      "name": "totalSupply",
      "outputs": [
        {
          "internalType": "uint256",
          "name": "",
          "type": "uint256"
        }
      ],
      "stateMutability": "view",
      "type": "function"
    },
    {
      "inputs": [
        {
          "internalType": "address",
          "name": "from",
          "type": "address"
        },
        {
          "internalType": "address",
          "name": "to",
          "type": "address"
        },
        {
          "internalType": "uint256",
          "name": "tokenId",
          "type": "uint256"
        }
      ],
      "name": "transferFrom",
      "outputs": [],
      "stateMutability": "nonpayable",
      "type": "function"
    },
    {
      "inputs": [
        {
          "internalType": "uint256",
          "name": "_listingPrice",
          "type": "uint256"
        }
      ],
      "name": "updateListingPrice",
      "outputs": [],
      "stateMutability": "payable",
      "type": "function"
    }
  ],
  "bytecode": "0x6658d15e17628000600c556103e8600d5560e060405260366080818152906200284160a03980516200003a91600f91602090910190620000eb565b5060408051808201909152600580825264173539b7b760d91b60209092019182526200006991601091620000eb565b503480156200007757600080fd5b50604080518082018252601081526f4d657461766572736520546f6b656e7360801b6020808301918252835180850190945260048452631351551560e21b908401528151919291620000cc91600091620000eb565b508051620000e2906001906020840190620000eb565b505050620001ce565b828054620000f99062000191565b90600052602060002090601f0160209004810192826200011d576000855562000168565b82601f106200013857805160ff191683800117855562000168565b8280016001018555821562000168579182015b82811115620001685782518255916020019190600101906200014b565b50620001769291506200017a565b5090565b5b808211156200017657600081556001016200017b565b600181811c90821680620001a657607f821691505b60208210811415620001c857634e487b7160e01b600052602260045260246000fd5b50919050565b61266380620001de6000396000f3fe6080604052600436106101d85760003560e01c8063714cff5611610102578063be9af53611610095578063d5abeb0111610064578063d5abeb01146104e9578063e219fc75146104ff578063e757223014610512578063e985e9c51461054257600080fd5b8063be9af53614610468578063c41a360a1461047b578063c6682862146104b4578063c87b56dd146104c957600080fd5b8063a22cb465116100d1578063a22cb46514610415578063a5c42ef114610379578063ae677aa314610435578063b88d4fde1461044857600080fd5b8063714cff56146103ce57806395d89b41146103e45780639cbf9e36146103f95780639f66dd1d1461040157600080fd5b8063202e37401161017a5780634f6ccce7116101495780634f6ccce71461035957806356189236146103795780636352211e1461038e57806370a08231146103ae57600080fd5b8063202e3740146102e457806323b872dd146102f95780632f745c591461031957806342842e0e1461033957600080fd5b8063095ea7b3116101b6578063095ea7b31461026c5780630f08efe01461028e57806312e85585146102b057806318160ddd146102cf57600080fd5b806301ffc9a7146101dd57806306fdde0314610212578063081812fc14610234575b600080fd5b3480156101e957600080fd5b506101fd6101f83660046122d2565b61058b565b60405190151581526020015b60405180910390f35b34801561021e57600080fd5b506102276105cf565b60405161020991906124e9565b34801561024057600080fd5b5061025461024f36600461230a565b610661565b6040516001600160a01b039091168152602001610209565b34801561027857600080fd5b5061028c6102873660046122a9565b610688565b005b34801561029a57600080fd5b506102a36107bf565b604051610209919061246d565b3480156102bc57600080fd5b50600c545b604051908152602001610209565b3480156102db57600080fd5b506008546102c1565b3480156102f057600080fd5b506102a3610973565b34801561030557600080fd5b5061028c61031436600461215f565b610b65565b34801561032557600080fd5b506102c16103343660046122a9565b610bec565b34801561034557600080fd5b5061028c61035436600461215f565b610c94565b34801561036557600080fd5b506102c161037436600461230a565b610caf565b34801561038557600080fd5b506102c1610d61565b34801561039a57600080fd5b506102546103a936600461230a565b610d71565b3480156103ba57600080fd5b506102c16103c9366004612113565b610dd6565b3480156103da57600080fd5b506102c160115481565b3480156103f057600080fd5b50610227610e70565b61028c610e7f565b34801561040d57600080fd5b506000610254565b34801561042157600080fd5b5061028c61043036600461226f565b610f46565b61028c61044336600461230a565b610f55565b34801561045457600080fd5b5061028c61046336600461219a565b610fda565b61028c61047636600461230a565b611068565b34801561048757600080fd5b5061025461049636600461230a565b6000908152601260205260409020600201546001600160a01b031690565b3480156104c057600080fd5b506102276111d0565b3480156104d557600080fd5b506102276104e436600461230a565b61125e565b3480156104f557600080fd5b506102c1600d5481565b61028c61050d366004612322565b611331565b34801561051e57600080fd5b506102c161052d36600461230a565b60009081526012602052604090206003015490565b34801561054e57600080fd5b506101fd61055d36600461212d565b6001600160a01b03918216600090815260056020908152604080832093909416825291909152205460ff1690565b60006001600160e01b031982167f780e9d630000000000000000000000000000000000000000000000000000000014806105c957506105c982611491565b92915050565b6060600080546105de9061256b565b80601f016020809104026020016040519081016040528092919081815260200182805461060a9061256b565b80156106575780601f1061062c57610100808354040283529160200191610657565b820191906000526020600020905b81548152906001019060200180831161063a57829003601f168201915b5050505050905090565b600061066c8261152c565b506000908152600460205260409020546001600160a01b031690565b600061069382610d71565b9050806001600160a01b0316836001600160a01b031614156107225760405162461bcd60e51b815260206004820152602160248201527f4552433732313a20617070726f76616c20746f2063757272656e74206f776e6560448201527f720000000000000000000000000000000000000000000000000000000000000060648201526084015b60405180910390fd5b336001600160a01b038216148061073e575061073e813361055d565b6107b05760405162461bcd60e51b815260206004820152603e60248201527f4552433732313a20617070726f76652063616c6c6572206973206e6f7420746f60448201527f6b656e206f776e6572206e6f7220617070726f76656420666f7220616c6c00006064820152608401610719565b6107ba8383611590565b505050565b606060006107cc600a5490565b905060006107d9600b5490565b600a546107e69190612528565b90506000808267ffffffffffffffff81111561081257634e487b7160e01b600052604160045260246000fd5b60405190808252806020026020018201604052801561086b57816020015b6040805160a0810182526000808252602080830182905292820181905260608201819052608082015282526000199092019101816108305790505b50905060005b8481101561096a5730601260006108898460016124fc565b81526020810191909152604001600020600201546001600160a01b031614156109585760006108b98260016124fc565b600081815260126020908152604091829020825160a0810184528154815260018201546001600160a01b039081169382019390935260028201549092169282019290925260038201546060820152600482015460ff16151560808201528551929350909185908790811061093d57634e487b7160e01b600052603260045260246000fd5b60209081029190910101526109536001866124fc565b945050505b80610962816125a6565b915050610871565b50949350505050565b60606000610980600a5490565b905060008060005b838110156109e35733601260006109a08460016124fc565b81526020810191909152604001600020600201546001600160a01b031614156109d1576109ce6001846124fc565b92505b806109db816125a6565b915050610988565b5060008267ffffffffffffffff811115610a0d57634e487b7160e01b600052604160045260246000fd5b604051908082528060200260200182016040528015610a6657816020015b6040805160a081018252600080825260208083018290529282018190526060820181905260808201528252600019909201910181610a2b5790505b50905060005b8481101561096a573360126000610a848460016124fc565b81526020810191909152604001600020600201546001600160a01b03161415610b53576000610ab48260016124fc565b600081815260126020908152604091829020825160a0810184528154815260018201546001600160a01b039081169382019390935260028201549092169282019290925260038201546060820152600482015460ff161515608082015285519293509091859087908110610b3857634e487b7160e01b600052603260045260246000fd5b6020908102919091010152610b4e6001866124fc565b945050505b80610b5d816125a6565b915050610a6c565b610b6f33826115fe565b610be15760405162461bcd60e51b815260206004820152602e60248201527f4552433732313a2063616c6c6572206973206e6f7420746f6b656e206f776e6560448201527f72206e6f7220617070726f7665640000000000000000000000000000000000006064820152608401610719565b6107ba83838361167d565b6000610bf783610dd6565b8210610c6b5760405162461bcd60e51b815260206004820152602b60248201527f455243373231456e756d657261626c653a206f776e657220696e646578206f7560448201527f74206f6620626f756e64730000000000000000000000000000000000000000006064820152608401610719565b506001600160a01b03919091166000908152600660209081526040808320938352929052205490565b6107ba83838360405180602001604052806000815250610fda565b6000610cba60085490565b8210610d2e5760405162461bcd60e51b815260206004820152602c60248201527f455243373231456e756d657261626c653a20676c6f62616c20696e646578206f60448201527f7574206f6620626f756e647300000000000000000000000000000000000000006064820152608401610719565b60088281548110610d4f57634e487b7160e01b600052603260045260246000fd5b90600052602060002001549050919050565b6000610d6c600a5490565b905090565b6000818152600260205260408120546001600160a01b0316806105c95760405162461bcd60e51b815260206004820152601860248201527f4552433732313a20696e76616c696420746f6b656e20494400000000000000006044820152606401610719565b60006001600160a01b038216610e545760405162461bcd60e51b815260206004820152602960248201527f4552433732313a2061646472657373207a65726f206973206e6f74206120766160448201527f6c6964206f776e657200000000000000000000000000000000000000000000006064820152608401610719565b506001600160a01b031660009081526003602052604090205490565b6060600180546105de9061256b565b6000610e8a60085490565b9050600d548110610edd5760405162461bcd60e51b815260206004820152600e60248201527f4e6f204e465420746f206d696e740000000000000000000000000000000000006044820152606401610719565b600c54341015610f2f5760405162461bcd60e51b815260206004820152601f60248201527f416d6f756e742069732067726561746572207468616e2074686520436f7374006044820152606401610719565b610f4333610f3e8360016124fc565b611855565b50565b610f5133838361186f565b5050565b600e546001600160a01b03163314610fd55760405162461bcd60e51b815260206004820152603060248201527f4f6e6c79206d61726b6574706c616365206f776e65722063616e20757064617460448201527f65206c697374696e672070726963652e000000000000000000000000000000006064820152608401610719565b600c55565b610fe433836115fe565b6110565760405162461bcd60e51b815260206004820152602e60248201527f4552433732313a2063616c6c6572206973206e6f7420746f6b656e206f776e6560448201527f72206e6f7220617070726f7665640000000000000000000000000000000000006064820152608401610719565b6110628484848461193e565b50505050565b6000818152601260205260409020600301543481146110f1576040805162461bcd60e51b81526020600482015260248101919091527f506c65617365207375626d6974207468652061736b696e67207072696365206960448201527f6e206f7264657220746f20636f6d706c657465207468652070757263686173656064820152608401610719565b60008281526012602052604090206002810180546001600160a01b0319908116331790915560048201805460ff1916600190811790915590910180549091169055611140600b80546001019055565b61114b30338461167d565b600e54600c546040516001600160a01b039092169181156108fc0291906000818181858888f19350505050158015611187573d6000803e3d6000fd5b506000828152601260205260408082206001015490516001600160a01b03909116913480156108fc02929091818181858888f193505050501580156107ba573d6000803e3d6000fd5b601080546111dd9061256b565b80601f01602080910402602001604051908101604052809291908181526020018280546112099061256b565b80156112565780601f1061122b57610100808354040283529160200191611256565b820191906000526020600020905b81548152906001019060200180831161123957829003601f168201915b505050505081565b6000818152600260205260409020546060906001600160a01b03166112c55760405162461bcd60e51b815260206004820152601260248201527f555249206973206e6f742070726573656e7400000000000000000000000000006044820152606401610719565b60006112dc60408051602081019091526000815290565b905060008151116112fc576040518060200160405280600081525061132a565b80611306846119bc565b601060405160200161131a9392919061236f565b6040516020818303038152906040525b9392505050565b6000828152601260205260409020600201546001600160a01b031633146113c05760405162461bcd60e51b815260206004820152602a60248201527f4f6e6c79206974656d206f776e65722063616e20706572666f726d207468697360448201527f206f7065726174696f6e000000000000000000000000000000000000000000006064820152608401610719565b600c5434146114365760405162461bcd60e51b8152602060048201526024808201527f5072696365206d75737420626520657175616c20746f206c697374696e67207060448201527f72696365000000000000000000000000000000000000000000000000000000006064820152608401610719565b600082815260126020526040902060048101805460ff19169055600381018290556001810180546001600160a01b031990811633179091556002909101805490911630179055611486600b611b0a565b610f5133308461167d565b60006001600160e01b031982167f80ac58cd0000000000000000000000000000000000000000000000000000000014806114f457506001600160e01b031982167f5b5e139f00000000000000000000000000000000000000000000000000000000145b806105c957507f01ffc9a7000000000000000000000000000000000000000000000000000000006001600160e01b03198316146105c9565b6000818152600260205260409020546001600160a01b0316610f435760405162461bcd60e51b815260206004820152601860248201527f4552433732313a20696e76616c696420746f6b656e20494400000000000000006044820152606401610719565b600081815260046020526040902080546001600160a01b0319166001600160a01b03841690811790915581906115c582610d71565b6001600160a01b03167f8c5be1e5ebec7d5bd14f71427d1e84f3dd0314c0f7b2291e5b200ac8c7c3b92560405160405180910390a45050565b60008061160a83610d71565b9050806001600160a01b0316846001600160a01b0316148061165157506001600160a01b0380821660009081526005602090815260408083209388168352929052205460ff165b806116755750836001600160a01b031661166a84610661565b6001600160a01b0316145b949350505050565b826001600160a01b031661169082610d71565b6001600160a01b03161461170c5760405162461bcd60e51b815260206004820152602560248201527f4552433732313a207472616e736665722066726f6d20696e636f72726563742060448201527f6f776e65720000000000000000000000000000000000000000000000000000006064820152608401610719565b6001600160a01b0382166117875760405162461bcd60e51b8152602060048201526024808201527f4552433732313a207472616e7366657220746f20746865207a65726f2061646460448201527f72657373000000000000000000000000000000000000000000000000000000006064820152608401610719565b611792838383611b61565b61179d600082611590565b6001600160a01b03831660009081526003602052604081208054600192906117c6908490612528565b90915550506001600160a01b03821660009081526003602052604081208054600192906117f49084906124fc565b909155505060008181526002602052604080822080546001600160a01b0319166001600160a01b0386811691821790925591518493918716917fddf252ad1be2c89b69c2b068fc378daa952ba7f163c4a11628f55a4df523b3ef91a4505050565b610f51828260405180602001604052806000815250611c19565b816001600160a01b0316836001600160a01b031614156118d15760405162461bcd60e51b815260206004820152601960248201527f4552433732313a20617070726f766520746f2063616c6c6572000000000000006044820152606401610719565b6001600160a01b03838116600081815260056020908152604080832094871680845294825291829020805460ff191686151590811790915591519182527f17307eab39ab6107e8899845ad3d59bd9653f200f220920489ca2b5937696c31910160405180910390a3505050565b61194984848461167d565b61195584848484611c97565b6110625760405162461bcd60e51b815260206004820152603260248201527f4552433732313a207472616e7366657220746f206e6f6e20455243373231526560448201527131b2b4bb32b91034b6b83632b6b2b73a32b960711b6064820152608401610719565b6060816119fc57505060408051808201909152600181527f3000000000000000000000000000000000000000000000000000000000000000602082015290565b8160005b8115611a265780611a10816125a6565b9150611a1f9050600a83612514565b9150611a00565b60008167ffffffffffffffff811115611a4f57634e487b7160e01b600052604160045260246000fd5b6040519080825280601f01601f191660200182016040528015611a79576020820181803683370190505b5090505b841561167557611a8e600183612528565b9150611a9b600a866125c1565b611aa69060306124fc565b60f81b818381518110611ac957634e487b7160e01b600052603260045260246000fd5b60200101907effffffffffffffffffffffffffffffffffffffffffffffffffffffffffffff1916908160001a905350611b03600a86612514565b9450611a7d565b805480611b595760405162461bcd60e51b815260206004820152601b60248201527f436f756e7465723a2064656372656d656e74206f766572666c6f7700000000006044820152606401610719565b600019019055565b6001600160a01b038316611bbc57611bb781600880546000838152600960205260408120829055600182018355919091527ff3f7a9fe364faab93b216da50a3214154f22a0a2b415b23a84c8169e8b636ee30155565b611bdf565b816001600160a01b0316836001600160a01b031614611bdf57611bdf8382611def565b6001600160a01b038216611bf6576107ba81611e8c565b826001600160a01b0316826001600160a01b0316146107ba576107ba8282611f65565b611c238383611fa9565b611c306000848484611c97565b6107ba5760405162461bcd60e51b815260206004820152603260248201527f4552433732313a207472616e7366657220746f206e6f6e20455243373231526560448201527131b2b4bb32b91034b6b83632b6b2b73a32b960711b6064820152608401610719565b60006001600160a01b0384163b15611de457604051630a85bd0160e11b81526001600160a01b0385169063150b7a0290611cdb903390899088908890600401612431565b602060405180830381600087803b158015611cf557600080fd5b505af1925050508015611d25575060408051601f3d908101601f19168201909252611d22918101906122ee565b60015b611dca573d808015611d53576040519150601f19603f3d011682016040523d82523d6000602084013e611d58565b606091505b508051611dc25760405162461bcd60e51b815260206004820152603260248201527f4552433732313a207472616e7366657220746f206e6f6e20455243373231526560448201527131b2b4bb32b91034b6b83632b6b2b73a32b960711b6064820152608401610719565b805181602001fd5b6001600160e01b031916630a85bd0160e11b149050611675565b506001949350505050565b60006001611dfc84610dd6565b611e069190612528565b600083815260076020526040902054909150808214611e59576001600160a01b03841660009081526006602090815260408083208584528252808320548484528184208190558352600790915290208190555b5060009182526007602090815260408084208490556001600160a01b039094168352600681528383209183525290812055565b600854600090611e9e90600190612528565b60008381526009602052604081205460088054939450909284908110611ed457634e487b7160e01b600052603260045260246000fd5b906000526020600020015490508060088381548110611f0357634e487b7160e01b600052603260045260246000fd5b6000918252602080832090910192909255828152600990915260408082208490558582528120556008805480611f4957634e487b7160e01b600052603160045260246000fd5b6001900381819060005260206000200160009055905550505050565b6000611f7083610dd6565b6001600160a01b039093166000908152600660209081526040808320868452825280832085905593825260079052919091209190915550565b6001600160a01b038216611fff5760405162461bcd60e51b815260206004820181905260248201527f4552433732313a206d696e7420746f20746865207a65726f20616464726573736044820152606401610719565b6000818152600260205260409020546001600160a01b0316156120645760405162461bcd60e51b815260206004820152601c60248201527f4552433732313a20746f6b656e20616c7265616479206d696e746564000000006044820152606401610719565b61207060008383611b61565b6001600160a01b03821660009081526003602052604081208054600192906120999084906124fc565b909155505060008181526002602052604080822080546001600160a01b0319166001600160a01b03861690811790915590518392907fddf252ad1be2c89b69c2b068fc378daa952ba7f163c4a11628f55a4df523b3ef908290a45050565b80356001600160a01b038116811461210e57600080fd5b919050565b600060208284031215612124578081fd5b61132a826120f7565b6000806040838503121561213f578081fd5b612148836120f7565b9150612156602084016120f7565b90509250929050565b600080600060608486031215612173578081fd5b61217c846120f7565b925061218a602085016120f7565b9150604084013590509250925092565b600080600080608085870312156121af578081fd5b6121b8856120f7565b93506121c6602086016120f7565b925060408501359150606085013567ffffffffffffffff808211156121e9578283fd5b818701915087601f8301126121fc578283fd5b81358181111561220e5761220e612601565b604051601f8201601f19908116603f0116810190838211818310171561223657612236612601565b816040528281528a602084870101111561224e578586fd5b82602086016020830137918201602001949094529598949750929550505050565b60008060408385031215612281578182fd5b61228a836120f7565b91506020830135801515811461229e578182fd5b809150509250929050565b600080604083850312156122bb578182fd5b6122c4836120f7565b946020939093013593505050565b6000602082840312156122e3578081fd5b813561132a81612617565b6000602082840312156122ff578081fd5b815161132a81612617565b60006020828403121561231b578081fd5b5035919050565b60008060408385031215612334578182fd5b50508035926020909101359150565b6000815180845261235b81602086016020860161253f565b601f01601f19169290920160200192915050565b6000845160206123828285838a0161253f565b8551918401916123958184848a0161253f565b85549201918390600181811c90808316806123b157607f831692505b8583108114156123cf57634e487b7160e01b88526022600452602488fd5b8080156123e357600181146123f457612420565b60ff19851688528388019550612420565b60008b815260209020895b858110156124185781548a8201529084019088016123ff565b505083880195505b50939b9a5050505050505050505050565b60006001600160a01b038087168352808616602084015250836040830152608060608301526124636080830184612343565b9695505050505050565b602080825282518282018190526000919060409081850190868401855b828110156124dc57815180518552868101516001600160a01b03908116888701528682015116868601526060808201519086015260809081015115159085015260a0909301929085019060010161248a565b5091979650505050505050565b60208152600061132a6020830184612343565b6000821982111561250f5761250f6125d5565b500190565b600082612523576125236125eb565b500490565b60008282101561253a5761253a6125d5565b500390565b60005b8381101561255a578181015183820152602001612542565b838111156110625750506000910152565b600181811c9082168061257f57607f821691505b602082108114156125a057634e487b7160e01b600052602260045260246000fd5b50919050565b60006000198214156125ba576125ba6125d5565b5060010190565b6000826125d0576125d06125eb565b500690565b634e487b7160e01b600052601160045260246000fd5b634e487b7160e01b600052601260045260246000fd5b634e487b7160e01b600052604160045260246000fd5b6001600160e01b031981168114610f4357600080fdfea26469706673582212203186b816e429bf851f3d36d1d844cdb7f35ce5573ae8d138a2c3adfa715d775e64736f6c63430008040033697066733a2f2f516d59414a363531634b453950716f596f746b4858547471616f75744b4761316a654c39416a694c3656667135762f",
  "linkReferences": {},
  "deployedLinkReferences": {}
}