{
  "_format": "hh-sol-artifact-1",
  "contractName": "NFTMarketplace",
  "sourceName": "contracts/NFTMarketplace.sol",
  "abi": [
    {
      "inputs": [],
      "stateMutability": "nonpayable",
      "type": "constructor"
    },
    {
      "anonymous": false,
      "inputs": [
        {
          "indexed": true,
          "internalType": "address",
          "name": "owner",
          "type": "address"
        },
        {
          "indexed": true,
          "internalType": "address",
          "name": "approved",
          "type": "address"
        },
        {
          "indexed": true,
          "internalType": "uint256",
          "name": "tokenId",
          "type": "uint256"
        }
      ],
      "name": "Approval",
      "type": "event"
    },
    {
      "anonymous": false,
      "inputs": [
        {
          "indexed": true,
          "internalType": "address",
          "name": "owner",
          "type": "address"
        },
        {
          "indexed": true,
          "internalType": "address",
          "name": "operator",
          "type": "address"
        },
        {
          "indexed": false,
          "internalType": "bool",
          "name": "approved",
          "type": "bool"
        }
      ],
      "name": "ApprovalForAll",
      "type": "event"
    },
    {
      "anonymous": false,
      "inputs": [
        {
          "indexed": true,
          "internalType": "uint256",
          "name": "tokenId",
          "type": "uint256"
        },
        {
          "indexed": false,
          "internalType": "address",
          "name": "seller",
          "type": "address"
        },
        {
          "indexed": false,
          "internalType": "address",
          "name": "owner",
          "type": "address"
        },
        {
          "indexed": false,
          "internalType": "uint256",
          "name": "price",
          "type": "uint256"
        },
        {
          "indexed": false,
          "internalType": "bool",
          "name": "sold",
          "type": "bool"
        }
      ],
      "name": "MarketItemCreated",
      "type": "event"
    },
    {
      "anonymous": false,
      "inputs": [
        {
          "indexed": true,
          "internalType": "uint256",
          "name": "tokenId",
          "type": "uint256"
        },
        {
          "indexed": false,
          "internalType": "address",
          "name": "seller",
          "type": "address"
        },
        {
          "indexed": false,
          "internalType": "address",
          "name": "owner",
          "type": "address"
        },
        {
          "indexed": false,
          "internalType": "uint256",
          "name": "price",
          "type": "uint256"
        },
        {
          "indexed": false,
          "internalType": "bool",
          "name": "sold",
          "type": "bool"
        }
      ],
      "name": "PersonalItemCreated",
      "type": "event"
    },
    {
      "anonymous": false,
      "inputs": [
        {
          "indexed": true,
          "internalType": "address",
          "name": "from",
          "type": "address"
        },
        {
          "indexed": true,
          "internalType": "address",
          "name": "to",
          "type": "address"
        },
        {
          "indexed": true,
          "internalType": "uint256",
          "name": "tokenId",
          "type": "uint256"
        }
      ],
      "name": "Transfer",
      "type": "event"
    },
    {
      "anonymous": false,
      "inputs": [
        {
          "indexed": false,
          "internalType": "address",
          "name": "sender",
          "type": "address"
        },
        {
          "indexed": false,
          "internalType": "address",
          "name": "to",
          "type": "address"
        },
        {
          "indexed": false,
          "internalType": "uint256",
          "name": "amount",
          "type": "uint256"
        }
      ],
      "name": "TransferSent",
      "type": "event"
    },
    {
      "inputs": [
        {
          "internalType": "address",
          "name": "to",
          "type": "address"
        },
        {
          "internalType": "uint256",
          "name": "tokenId",
          "type": "uint256"
        }
      ],
      "name": "approve",
      "outputs": [],
      "stateMutability": "nonpayable",
      "type": "function"
    },
    {
      "inputs": [
        {
          "internalType": "address",
          "name": "owner",
          "type": "address"
        }
      ],
      "name": "balanceOf",
      "outputs": [
        {
          "internalType": "uint256",
          "name": "",
          "type": "uint256"
        }
      ],
      "stateMutability": "view",
      "type": "function"
    },
    {
      "inputs": [
        {
          "internalType": "uint256",
          "name": "tokenId",
          "type": "uint256"
        }
      ],
      "name": "createMarketSale",
      "outputs": [],
      "stateMutability": "payable",
      "type": "function"
    },
    {
      "inputs": [
        {
          "internalType": "string",
          "name": "tokenURI",
          "type": "string"
        },
        {
          "internalType": "uint256",
          "name": "price",
          "type": "uint256"
        }
      ],
      "name": "createPersonalToken",
      "outputs": [
        {
          "internalType": "uint256",
          "name": "",
          "type": "uint256"
        }
      ],
      "stateMutability": "payable",
      "type": "function"
    },
    {
      "inputs": [
        {
          "internalType": "string",
          "name": "tokenURI",
          "type": "string"
        },
        {
          "internalType": "uint256",
          "name": "price",
          "type": "uint256"
        }
      ],
      "name": "createToken",
      "outputs": [
        {
          "internalType": "uint256",
          "name": "",
          "type": "uint256"
        }
      ],
      "stateMutability": "payable",
      "type": "function"
    },
    {
      "inputs": [],
      "name": "fetchItemsListed",
      "outputs": [
        {
          "components": [
            {
              "internalType": "uint256",
              "name": "tokenId",
              "type": "uint256"
            },
            {
              "internalType": "address payable",
              "name": "seller",
              "type": "address"
            },
            {
              "internalType": "address payable",
              "name": "owner",
              "type": "address"
            },
            {
              "internalType": "uint256",
              "name": "price",
              "type": "uint256"
            },
            {
              "internalType": "bool",
              "name": "sold",
              "type": "bool"
            }
          ],
          "internalType": "struct NFTMarketplace.MarketItem[]",
          "name": "",
          "type": "tuple[]"
        }
      ],
      "stateMutability": "view",
      "type": "function"
    },
    {
      "inputs": [],
      "name": "fetchMarketItems",
      "outputs": [
        {
          "components": [
            {
              "internalType": "uint256",
              "name": "tokenId",
              "type": "uint256"
            },
            {
              "internalType": "address payable",
              "name": "seller",
              "type": "address"
            },
            {
              "internalType": "address payable",
              "name": "owner",
              "type": "address"
            },
            {
              "internalType": "uint256",
              "name": "price",
              "type": "uint256"
            },
            {
              "internalType": "bool",
              "name": "sold",
              "type": "bool"
            }
          ],
          "internalType": "struct NFTMarketplace.MarketItem[]",
          "name": "",
          "type": "tuple[]"
        }
      ],
      "stateMutability": "view",
      "type": "function"
    },
    {
      "inputs": [],
      "name": "fetchMyNFTs",
      "outputs": [
        {
          "components": [
            {
              "internalType": "uint256",
              "name": "tokenId",
              "type": "uint256"
            },
            {
              "internalType": "address payable",
              "name": "seller",
              "type": "address"
            },
            {
              "internalType": "address payable",
              "name": "owner",
              "type": "address"
            },
            {
              "internalType": "uint256",
              "name": "price",
              "type": "uint256"
            },
            {
              "internalType": "bool",
              "name": "sold",
              "type": "bool"
            }
          ],
          "internalType": "struct NFTMarketplace.MarketItem[]",
          "name": "",
          "type": "tuple[]"
        }
      ],
      "stateMutability": "view",
      "type": "function"
    },
    {
      "inputs": [
        {
          "internalType": "uint256",
          "name": "tokenId",
          "type": "uint256"
        }
      ],
      "name": "getApproved",
      "outputs": [
        {
          "internalType": "address",
          "name": "",
          "type": "address"
        }
      ],
      "stateMutability": "view",
      "type": "function"
    },
    {
      "inputs": [],
      "name": "getCurrentTokenId",
      "outputs": [
        {
          "internalType": "uint256",
          "name": "",
          "type": "uint256"
        }
      ],
      "stateMutability": "view",
      "type": "function"
    },
    {
      "inputs": [],
      "name": "getListingPrice",
      "outputs": [
        {
          "internalType": "uint256",
          "name": "",
          "type": "uint256"
        }
      ],
      "stateMutability": "view",
      "type": "function"
    },
    {
      "inputs": [
        {
          "internalType": "uint256",
          "name": "tokenId",
          "type": "uint256"
        }
      ],
      "name": "getOwner",
      "outputs": [
        {
          "internalType": "address",
          "name": "",
          "type": "address"
        }
      ],
      "stateMutability": "view",
      "type": "function"
    },
    {
      "inputs": [
        {
          "internalType": "uint256",
          "name": "tokenId",
          "type": "uint256"
        }
      ],
      "name": "getPrice",
      "outputs": [
        {
          "internalType": "uint256",
          "name": "",
          "type": "uint256"
        }
      ],
      "stateMutability": "view",
      "type": "function"
    },
    {
      "inputs": [],
      "name": "getZeroAdrress",
      "outputs": [
        {
          "internalType": "address",
          "name": "",
          "type": "address"
        }
      ],
      "stateMutability": "pure",
      "type": "function"
    },
    {
      "inputs": [
        {
          "internalType": "address",
          "name": "owner",
          "type": "address"
        },
        {
          "internalType": "address",
          "name": "operator",
          "type": "address"
        }
      ],
      "name": "isApprovedForAll",
      "outputs": [
        {
          "internalType": "bool",
          "name": "",
          "type": "bool"
        }
      ],
      "stateMutability": "view",
      "type": "function"
    },
    {
      "inputs": [],
      "name": "name",
      "outputs": [
        {
          "internalType": "string",
          "name": "",
          "type": "string"
        }
      ],
      "stateMutability": "view",
      "type": "function"
    },
    {
      "inputs": [
        {
          "internalType": "uint256",
          "name": "tokenId",
          "type": "uint256"
        }
      ],
      "name": "ownerOf",
      "outputs": [
        {
          "internalType": "address",
          "name": "",
          "type": "address"
        }
      ],
      "stateMutability": "view",
      "type": "function"
    },
    {
      "inputs": [
        {
          "internalType": "uint256",
          "name": "tokenId",
          "type": "uint256"
        },
        {
          "internalType": "uint256",
          "name": "price",
          "type": "uint256"
        }
      ],
      "name": "resellToken",
      "outputs": [],
      "stateMutability": "payable",
      "type": "function"
    },
    {
      "inputs": [
        {
          "internalType": "address",
          "name": "from",
          "type": "address"
        },
        {
          "internalType": "address",
          "name": "to",
          "type": "address"
        },
        {
          "internalType": "uint256",
          "name": "tokenId",
          "type": "uint256"
        }
      ],
      "name": "safeTransferFrom",
      "outputs": [],
      "stateMutability": "nonpayable",
      "type": "function"
    },
    {
      "inputs": [
        {
          "internalType": "address",
          "name": "from",
          "type": "address"
        },
        {
          "internalType": "address",
          "name": "to",
          "type": "address"
        },
        {
          "internalType": "uint256",
          "name": "tokenId",
          "type": "uint256"
        },
        {
          "internalType": "bytes",
          "name": "data",
          "type": "bytes"
        }
      ],
      "name": "safeTransferFrom",
      "outputs": [],
      "stateMutability": "nonpayable",
      "type": "function"
    },
    {
      "inputs": [
        {
          "internalType": "address",
          "name": "operator",
          "type": "address"
        },
        {
          "internalType": "bool",
          "name": "approved",
          "type": "bool"
        }
      ],
      "name": "setApprovalForAll",
      "outputs": [],
      "stateMutability": "nonpayable",
      "type": "function"
    },
    {
      "inputs": [
        {
          "internalType": "bytes4",
          "name": "interfaceId",
          "type": "bytes4"
        }
      ],
      "name": "supportsInterface",
      "outputs": [
        {
          "internalType": "bool",
          "name": "",
          "type": "bool"
        }
      ],
      "stateMutability": "view",
      "type": "function"
    },
    {
      "inputs": [],
      "name": "symbol",
      "outputs": [
        {
          "internalType": "string",
          "name": "",
          "type": "string"
        }
      ],
      "stateMutability": "view",
      "type": "function"
    },
    {
      "inputs": [],
      "name": "tokenID",
      "outputs": [
        {
          "internalType": "uint256",
          "name": "",
          "type": "uint256"
        }
      ],
      "stateMutability": "view",
      "type": "function"
    },
    {
      "inputs": [
        {
          "internalType": "uint256",
          "name": "tokenId",
          "type": "uint256"
        }
      ],
      "name": "tokenURI",
      "outputs": [
        {
          "internalType": "string",
          "name": "",
          "type": "string"
        }
      ],
      "stateMutability": "view",
      "type": "function"
    },
    {
      "inputs": [
        {
          "internalType": "address",
          "name": "from",
          "type": "address"
        },
        {
          "internalType": "address",
          "name": "to",
          "type": "address"
        },
        {
          "internalType": "uint256",
          "name": "tokenId",
          "type": "uint256"
        }
      ],
      "name": "transferFrom",
      "outputs": [],
      "stateMutability": "nonpayable",
      "type": "function"
    },
    {
      "inputs": [
        {
          "internalType": "uint256",
          "name": "_listingPrice",
          "type": "uint256"
        }
      ],
      "name": "updateListingPrice",
      "outputs": [],
      "stateMutability": "payable",
      "type": "function"
    }
  ],
  "bytecode": "0x60806040526658d15e17628000600a553480156200001c57600080fd5b50604080518082018252601081526f4d657461766572736520546f6b656e7360801b6020808301918252835180850190945260048452631351551560e21b9084015281519192916200007191600091620000a7565b50805162000087906001906020840190620000a7565b5050600160075550600b80546001600160a01b031916331790556200018a565b828054620000b5906200014d565b90600052602060002090601f016020900481019282620000d9576000855562000124565b82601f10620000f457805160ff191683800117855562000124565b8280016001018555821562000124579182015b828111156200012457825182559160200191906001019062000107565b506200013292915062000136565b5090565b5b8082111562000132576000815560010162000137565b600181811c908216806200016257607f821691505b602082108114156200018457634e487b7160e01b600052602260045260246000fd5b50919050565b61271b806200019a6000396000f3fe6080604052600436106101ac5760003560e01c806372b3b620116100ec578063b88d4fde1161008a578063c87b56dd11610064578063c87b56dd14610450578063e219fc7514610470578063e757223014610483578063e985e9c5146104b357600080fd5b8063b88d4fde146103e4578063be9af53614610404578063c41a360a1461041757600080fd5b8063a22cb465116100c6578063a22cb4651461039e578063a5c42ef11461030d578063ad141f96146103be578063ae677aa3146103d157600080fd5b806372b3b6201461036257806395d89b41146103755780639f66dd1d1461038a57600080fd5b8063202e37401161015957806345f8fa801161013357806345f8fa80146102f8578063561892361461030d5780636352211e1461032257806370a082311461034257600080fd5b8063202e3740146102a357806323b872dd146102b857806342842e0e146102d857600080fd5b8063095ea7b31161018a578063095ea7b3146102405780630f08efe01461026257806312e855851461028457600080fd5b806301ffc9a7146101b157806306fdde03146101e6578063081812fc14610208575b600080fd5b3480156101bd57600080fd5b506101d16101cc3660046123c7565b6104fc565b60405190151581526020015b60405180910390f35b3480156101f257600080fd5b506101fb610599565b6040516101dd91906125a1565b34801561021457600080fd5b50610228610223366004612455565b61062b565b6040516001600160a01b0390911681526020016101dd565b34801561024c57600080fd5b5061026061025b36600461239e565b610652565b005b34801561026e57600080fd5b50610277610789565b6040516101dd9190612525565b34801561029057600080fd5b50600a545b6040519081526020016101dd565b3480156102af57600080fd5b5061027761093d565b3480156102c457600080fd5b506102606102d33660046122b0565b610b2f565b3480156102e457600080fd5b506102606102f33660046122b0565b610bb6565b34801561030457600080fd5b50610277610bd1565b34801561031957600080fd5b50610295610dc3565b34801561032e57600080fd5b5061022861033d366004612455565b610dd3565b34801561034e57600080fd5b5061029561035d366004612264565b610e38565b6102956103703660046123ff565b610ed2565b34801561038157600080fd5b506101fb610f14565b34801561039657600080fd5b506000610228565b3480156103aa57600080fd5b506102606103b9366004612364565b610f23565b6102956103cc3660046123ff565b610f32565b6102606103df366004612455565b610f6d565b3480156103f057600080fd5b506102606103ff3660046122eb565b610ff2565b610260610412366004612455565b611080565b34801561042357600080fd5b50610228610432366004612455565b6000908152600c60205260409020600201546001600160a01b031690565b34801561045c57600080fd5b506101fb61046b366004612455565b6111e8565b61026061047e36600461246d565b6112f9565b34801561048f57600080fd5b5061029561049e366004612455565b6000908152600c602052604090206003015490565b3480156104bf57600080fd5b506101d16104ce36600461227e565b6001600160a01b03918216600090815260056020908152604080832093909416825291909152205460ff1690565b60006001600160e01b031982167f80ac58cd00000000000000000000000000000000000000000000000000000000148061055f57506001600160e01b031982167f5b5e139f00000000000000000000000000000000000000000000000000000000145b8061059357507f01ffc9a7000000000000000000000000000000000000000000000000000000006001600160e01b03198316145b92915050565b6060600080546105a890612623565b80601f01602080910402602001604051908101604052809291908181526020018280546105d490612623565b80156106215780601f106105f657610100808354040283529160200191610621565b820191906000526020600020905b81548152906001019060200180831161060457829003601f168201915b5050505050905090565b600061063682611440565b506000908152600460205260409020546001600160a01b031690565b600061065d82610dd3565b9050806001600160a01b0316836001600160a01b031614156106ec5760405162461bcd60e51b815260206004820152602160248201527f4552433732313a20617070726f76616c20746f2063757272656e74206f776e6560448201527f720000000000000000000000000000000000000000000000000000000000000060648201526084015b60405180910390fd5b336001600160a01b0382161480610708575061070881336104ce565b61077a5760405162461bcd60e51b815260206004820152603e60248201527f4552433732313a20617070726f76652063616c6c6572206973206e6f7420746f60448201527f6b656e206f776e6572206e6f7220617070726f76656420666f7220616c6c000060648201526084016106e3565b61078483836114a7565b505050565b6060600061079660085490565b905060006107a360095490565b6008546107b091906125e0565b90506000808267ffffffffffffffff8111156107dc57634e487b7160e01b600052604160045260246000fd5b60405190808252806020026020018201604052801561083557816020015b6040805160a0810182526000808252602080830182905292820181905260608201819052608082015282526000199092019101816107fa5790505b50905060005b848110156109345730600c60006108538460016125b4565b81526020810191909152604001600020600201546001600160a01b031614156109225760006108838260016125b4565b6000818152600c6020908152604091829020825160a0810184528154815260018201546001600160a01b039081169382019390935260028201549092169282019290925260038201546060820152600482015460ff16151560808201528551929350909185908790811061090757634e487b7160e01b600052603260045260246000fd5b602090810291909101015261091d6001866125b4565b945050505b8061092c8161265e565b91505061083b565b50949350505050565b6060600061094a60085490565b905060008060005b838110156109ad5733600c600061096a8460016125b4565b81526020810191909152604001600020600201546001600160a01b0316141561099b576109986001846125b4565b92505b806109a58161265e565b915050610952565b5060008267ffffffffffffffff8111156109d757634e487b7160e01b600052604160045260246000fd5b604051908082528060200260200182016040528015610a3057816020015b6040805160a0810182526000808252602080830182905292820181905260608201819052608082015282526000199092019101816109f55790505b50905060005b848110156109345733600c6000610a4e8460016125b4565b81526020810191909152604001600020600201546001600160a01b03161415610b1d576000610a7e8260016125b4565b6000818152600c6020908152604091829020825160a0810184528154815260018201546001600160a01b039081169382019390935260028201549092169282019290925260038201546060820152600482015460ff161515608082015285519293509091859087908110610b0257634e487b7160e01b600052603260045260246000fd5b6020908102919091010152610b186001866125b4565b945050505b80610b278161265e565b915050610a36565b610b393382611515565b610bab5760405162461bcd60e51b815260206004820152602e60248201527f4552433732313a2063616c6c6572206973206e6f7420746f6b656e206f776e6560448201527f72206e6f7220617070726f76656400000000000000000000000000000000000060648201526084016106e3565b610784838383611593565b61078483838360405180602001604052806000815250610ff2565b60606000610bde60085490565b905060008060005b83811015610c415733600c6000610bfe8460016125b4565b81526020810191909152604001600020600101546001600160a01b03161415610c2f57610c2c6001846125b4565b92505b80610c398161265e565b915050610be6565b5060008267ffffffffffffffff811115610c6b57634e487b7160e01b600052604160045260246000fd5b604051908082528060200260200182016040528015610cc457816020015b6040805160a081018252600080825260208083018290529282018190526060820181905260808201528252600019909201910181610c895790505b50905060005b848110156109345733600c6000610ce28460016125b4565b81526020810191909152604001600020600101546001600160a01b03161415610db1576000610d128260016125b4565b6000818152600c6020908152604091829020825160a0810184528154815260018201546001600160a01b039081169382019390935260028201549092169282019290925260038201546060820152600482015460ff161515608082015285519293509091859087908110610d9657634e487b7160e01b600052603260045260246000fd5b6020908102919091010152610dac6001866125b4565b945050505b80610dbb8161265e565b915050610cca565b6000610dce60085490565b905090565b6000818152600260205260408120546001600160a01b0316806105935760405162461bcd60e51b815260206004820152601860248201527f4552433732313a20696e76616c696420746f6b656e204944000000000000000060448201526064016106e3565b60006001600160a01b038216610eb65760405162461bcd60e51b815260206004820152602960248201527f4552433732313a2061646472657373207a65726f206973206e6f74206120766160448201527f6c6964206f776e6572000000000000000000000000000000000000000000000060648201526084016106e3565b506001600160a01b031660009081526003602052604090205490565b6000610ee2600880546001019055565b6000610eed60085490565b9050610ef93382611760565b610f0381856118a2565b610f0d818461194b565b9392505050565b6060600180546105a890612623565b610f2e338383611ade565b5050565b6000610f42600880546001019055565b6000610f4d60085490565b9050610f593382611760565b610f6381856118a2565b610f0d8184611bad565b600b546001600160a01b03163314610fed5760405162461bcd60e51b815260206004820152603060248201527f4f6e6c79206d61726b6574706c616365206f776e65722063616e20757064617460448201527f65206c697374696e672070726963652e0000000000000000000000000000000060648201526084016106e3565b600a55565b610ffc3383611515565b61106e5760405162461bcd60e51b815260206004820152602e60248201527f4552433732313a2063616c6c6572206973206e6f7420746f6b656e206f776e6560448201527f72206e6f7220617070726f76656400000000000000000000000000000000000060648201526084016106e3565b61107a84848484611d35565b50505050565b6000818152600c6020526040902060030154348114611109576040805162461bcd60e51b81526020600482015260248101919091527f506c65617365207375626d6974207468652061736b696e67207072696365206960448201527f6e206f7264657220746f20636f6d706c6574652074686520707572636861736560648201526084016106e3565b6000828152600c602052604090206002810180546001600160a01b0319908116331790915560048201805460ff1916600190811790915590910180549091169055611158600980546001019055565b611163303384611593565b600b54600a546040516001600160a01b039092169181156108fc0291906000818181858888f1935050505015801561119f573d6000803e3d6000fd5b506000828152600c60205260408082206001015490516001600160a01b03909116913480156108fc02929091818181858888f19350505050158015610784573d6000803e3d6000fd5b60606111f382611440565b6000828152600660205260408120805461120c90612623565b80601f016020809104026020016040519081016040528092919081815260200182805461123890612623565b80156112855780601f1061125a57610100808354040283529160200191611285565b820191906000526020600020905b81548152906001019060200180831161126857829003601f168201915b5050505050905060006112a360408051602081019091526000815290565b90508051600014156112b6575092915050565b8151156112e85780826040516020016112d09291906124ba565b60405160208183030381529060405292505050919050565b6112f184611dbe565b949350505050565b6000828152600c60205260409020600201546001600160a01b031633146113885760405162461bcd60e51b815260206004820152602a60248201527f4f6e6c79206974656d206f776e65722063616e20706572666f726d207468697360448201527f206f7065726174696f6e0000000000000000000000000000000000000000000060648201526084016106e3565b600a5434146113e55760405162461bcd60e51b8152602060048201526024808201527f5072696365206d75737420626520657175616c20746f206c697374696e6720706044820152637269636560e01b60648201526084016106e3565b6000828152600c6020526040902060048101805460ff19169055600381018290556001810180546001600160a01b0319908116331790915560029091018054909116301790556114356009611e31565b610f2e333084611593565b6000818152600260205260409020546001600160a01b03166114a45760405162461bcd60e51b815260206004820152601860248201527f4552433732313a20696e76616c696420746f6b656e204944000000000000000060448201526064016106e3565b50565b600081815260046020526040902080546001600160a01b0319166001600160a01b03841690811790915581906114dc82610dd3565b6001600160a01b03167f8c5be1e5ebec7d5bd14f71427d1e84f3dd0314c0f7b2291e5b200ac8c7c3b92560405160405180910390a45050565b60008061152183610dd3565b9050806001600160a01b0316846001600160a01b0316148061156857506001600160a01b0380821660009081526005602090815260408083209388168352929052205460ff165b806112f15750836001600160a01b03166115818461062b565b6001600160a01b031614949350505050565b826001600160a01b03166115a682610dd3565b6001600160a01b0316146116225760405162461bcd60e51b815260206004820152602560248201527f4552433732313a207472616e736665722066726f6d20696e636f72726563742060448201527f6f776e657200000000000000000000000000000000000000000000000000000060648201526084016106e3565b6001600160a01b03821661169d5760405162461bcd60e51b8152602060048201526024808201527f4552433732313a207472616e7366657220746f20746865207a65726f2061646460448201527f726573730000000000000000000000000000000000000000000000000000000060648201526084016106e3565b6116a86000826114a7565b6001600160a01b03831660009081526003602052604081208054600192906116d19084906125e0565b90915550506001600160a01b03821660009081526003602052604081208054600192906116ff9084906125b4565b909155505060008181526002602052604080822080546001600160a01b0319166001600160a01b0386811691821790925591518493918716917fddf252ad1be2c89b69c2b068fc378daa952ba7f163c4a11628f55a4df523b3ef91a4505050565b6001600160a01b0382166117b65760405162461bcd60e51b815260206004820181905260248201527f4552433732313a206d696e7420746f20746865207a65726f206164647265737360448201526064016106e3565b6000818152600260205260409020546001600160a01b03161561181b5760405162461bcd60e51b815260206004820152601c60248201527f4552433732313a20746f6b656e20616c7265616479206d696e7465640000000060448201526064016106e3565b6001600160a01b03821660009081526003602052604081208054600192906118449084906125b4565b909155505060008181526002602052604080822080546001600160a01b0319166001600160a01b03861690811790915590518392907fddf252ad1be2c89b69c2b068fc378daa952ba7f163c4a11628f55a4df523b3ef908290a45050565b6000828152600260205260409020546001600160a01b031661192c5760405162461bcd60e51b815260206004820152602e60248201527f45524337323155524953746f726167653a2055524920736574206f66206e6f6e60448201527f6578697374656e7420746f6b656e00000000000000000000000000000000000060648201526084016106e3565b6000828152600660209081526040909120825161078492840190612139565b6000811161199b5760405162461bcd60e51b815260206004820152601c60248201527f5072696365206d757374206265206174206c656173742031207765690000000060448201526064016106e3565b600a5434146119f85760405162461bcd60e51b8152602060048201526024808201527f5072696365206d75737420626520657175616c20746f206c697374696e6720706044820152637269636560e01b60648201526084016106e3565b6040805160a08101825283815233602080830182815230848601818152606086018881526000608088018181528b8252600c909652979097209551865591516001860180546001600160a01b03199081166001600160a01b0393841617909155925160028701805490941691161790915593516003840155516004909201805460ff191692151592909217909155611a909184611593565b604080513381523060208201529081018290526000606082015282907fb640004f1d14576d0c209e240cad0410e0d8c0c33a09375861fbadae2588a98d906080015b60405180910390a25050565b816001600160a01b0316836001600160a01b03161415611b405760405162461bcd60e51b815260206004820152601960248201527f4552433732313a20617070726f766520746f2063616c6c65720000000000000060448201526064016106e3565b6001600160a01b03838116600081815260056020908152604080832094871680845294825291829020805460ff191686151590811790915591519182527f17307eab39ab6107e8899845ad3d59bd9653f200f220920489ca2b5937696c31910160405180910390a3505050565b60008111611bfd5760405162461bcd60e51b815260206004820152601c60248201527f5072696365206d757374206265206174206c656173742031207765690000000060448201526064016106e3565b6040805160a08101825283815233602080830182815230848601818152606086018881526000608088018181528b8252600c909652979097209551865591516001860180546001600160a01b03199081166001600160a01b0393841617909155925160028701805490941691161790915593516003840155516004909201805460ff191692151592909217909155611c959184611593565b6000828152600c602052604090206002810180546001600160a01b0319908116331790915560048201805460ff1916600190811790915590910180549091169055611ce4600980546001019055565b611cef303384611593565b604080513081523360208201529081018290526001606082015282907fd6cae11418ba2a1ec659992393f3db3926b5d6391aba2e8e6032a490247a076790608001611ad2565b611d40848484611593565b611d4c84848484611e88565b61107a5760405162461bcd60e51b815260206004820152603260248201527f4552433732313a207472616e7366657220746f206e6f6e20455243373231526560448201527f63656976657220696d706c656d656e746572000000000000000000000000000060648201526084016106e3565b6060611dc982611440565b6000611de060408051602081019091526000815290565b90506000815111611e005760405180602001604052806000815250610f0d565b80611e0a84611feb565b604051602001611e1b9291906124ba565b6040516020818303038152906040529392505050565b805480611e805760405162461bcd60e51b815260206004820152601b60248201527f436f756e7465723a2064656372656d656e74206f766572666c6f77000000000060448201526064016106e3565b600019019055565b60006001600160a01b0384163b15611fe057604051630a85bd0160e11b81526001600160a01b0385169063150b7a0290611ecc9033908990889088906004016124e9565b602060405180830381600087803b158015611ee657600080fd5b505af1925050508015611f16575060408051601f3d908101601f19168201909252611f13918101906123e3565b60015b611fc6573d808015611f44576040519150601f19603f3d011682016040523d82523d6000602084013e611f49565b606091505b508051611fbe5760405162461bcd60e51b815260206004820152603260248201527f4552433732313a207472616e7366657220746f206e6f6e20455243373231526560448201527f63656976657220696d706c656d656e746572000000000000000000000000000060648201526084016106e3565b805181602001fd5b6001600160e01b031916630a85bd0160e11b1490506112f1565b506001949350505050565b60608161202b57505060408051808201909152600181527f3000000000000000000000000000000000000000000000000000000000000000602082015290565b8160005b8115612055578061203f8161265e565b915061204e9050600a836125cc565b915061202f565b60008167ffffffffffffffff81111561207e57634e487b7160e01b600052604160045260246000fd5b6040519080825280601f01601f1916602001820160405280156120a8576020820181803683370190505b5090505b84156112f1576120bd6001836125e0565b91506120ca600a86612679565b6120d59060306125b4565b60f81b8183815181106120f857634e487b7160e01b600052603260045260246000fd5b60200101907effffffffffffffffffffffffffffffffffffffffffffffffffffffffffffff1916908160001a905350612132600a866125cc565b94506120ac565b82805461214590612623565b90600052602060002090601f01602090048101928261216757600085556121ad565b82601f1061218057805160ff19168380011785556121ad565b828001600101855582156121ad579182015b828111156121ad578251825591602001919060010190612192565b506121b99291506121bd565b5090565b5b808211156121b957600081556001016121be565b600067ffffffffffffffff808411156121ed576121ed6126b9565b604051601f8501601f19908116603f01168101908282118183101715612215576122156126b9565b8160405280935085815286868601111561222e57600080fd5b858560208301376000602087830101525050509392505050565b80356001600160a01b038116811461225f57600080fd5b919050565b600060208284031215612275578081fd5b610f0d82612248565b60008060408385031215612290578081fd5b61229983612248565b91506122a760208401612248565b90509250929050565b6000806000606084860312156122c4578081fd5b6122cd84612248565b92506122db60208501612248565b9150604084013590509250925092565b60008060008060808587031215612300578081fd5b61230985612248565b935061231760208601612248565b925060408501359150606085013567ffffffffffffffff811115612339578182fd5b8501601f81018713612349578182fd5b612358878235602084016121d2565b91505092959194509250565b60008060408385031215612376578182fd5b61237f83612248565b915060208301358015158114612393578182fd5b809150509250929050565b600080604083850312156123b0578182fd5b6123b983612248565b946020939093013593505050565b6000602082840312156123d8578081fd5b8135610f0d816126cf565b6000602082840312156123f4578081fd5b8151610f0d816126cf565b60008060408385031215612411578182fd5b823567ffffffffffffffff811115612427578283fd5b8301601f81018513612437578283fd5b612446858235602084016121d2565b95602094909401359450505050565b600060208284031215612466578081fd5b5035919050565b6000806040838503121561247f578182fd5b50508035926020909101359150565b600081518084526124a68160208601602086016125f7565b601f01601f19169290920160200192915050565b600083516124cc8184602088016125f7565b8351908301906124e08183602088016125f7565b01949350505050565b60006001600160a01b0380871683528086166020840152508360408301526080606083015261251b608083018461248e565b9695505050505050565b602080825282518282018190526000919060409081850190868401855b8281101561259457815180518552868101516001600160a01b03908116888701528682015116868601526060808201519086015260809081015115159085015260a09093019290850190600101612542565b5091979650505050505050565b602081526000610f0d602083018461248e565b600082198211156125c7576125c761268d565b500190565b6000826125db576125db6126a3565b500490565b6000828210156125f2576125f261268d565b500390565b60005b838110156126125781810151838201526020016125fa565b8381111561107a5750506000910152565b600181811c9082168061263757607f821691505b6020821081141561265857634e487b7160e01b600052602260045260246000fd5b50919050565b60006000198214156126725761267261268d565b5060010190565b600082612688576126886126a3565b500690565b634e487b7160e01b600052601160045260246000fd5b634e487b7160e01b600052601260045260246000fd5b634e487b7160e01b600052604160045260246000fd5b6001600160e01b0319811681146114a457600080fdfea2646970667358221220a545f57fc942b3c34c7f2e6a28f095f14a90f879e52c4d6ba3fb746af647667e64736f6c63430008040033",
  "linkReferences": {},
  "deployedLinkReferences": {}
}